{
  "_format": "hh-sol-artifact-1",
  "contractName": "beeToken",
  "sourceName": "contracts/BeeToken.sol",
  "abi": [
    {
      "inputs": [],
      "stateMutability": "nonpayable",
      "type": "constructor"
    },
    {
      "anonymous": false,
      "inputs": [
        {
          "indexed": true,
          "internalType": "address",
          "name": "owner",
          "type": "address"
        },
        {
          "indexed": true,
          "internalType": "address",
          "name": "approved",
          "type": "address"
        },
        {
          "indexed": true,
          "internalType": "uint256",
          "name": "tokenId",
          "type": "uint256"
        }
      ],
      "name": "Approval",
      "type": "event"
    },
    {
      "anonymous": false,
      "inputs": [
        {
          "indexed": true,
          "internalType": "address",
          "name": "owner",
          "type": "address"
        },
        {
          "indexed": true,
          "internalType": "address",
          "name": "operator",
          "type": "address"
        },
        {
          "indexed": false,
          "internalType": "bool",
          "name": "approved",
          "type": "bool"
        }
      ],
      "name": "ApprovalForAll",
      "type": "event"
    },
    {
      "anonymous": false,
      "inputs": [
        {
          "indexed": true,
          "internalType": "address",
          "name": "previousOwner",
          "type": "address"
        },
        {
          "indexed": true,
          "internalType": "address",
          "name": "newOwner",
          "type": "address"
        }
      ],
      "name": "OwnershipTransferred",
      "type": "event"
    },
    {
      "anonymous": false,
      "inputs": [
        {
          "indexed": true,
          "internalType": "address",
          "name": "from",
          "type": "address"
        },
        {
          "indexed": true,
          "internalType": "address",
          "name": "to",
          "type": "address"
        },
        {
          "indexed": true,
          "internalType": "uint256",
          "name": "tokenId",
          "type": "uint256"
        }
      ],
      "name": "Transfer",
      "type": "event"
    },
    {
      "inputs": [
        {
          "internalType": "address",
          "name": "to",
          "type": "address"
        },
        {
          "internalType": "uint256",
          "name": "tokenId",
          "type": "uint256"
        }
      ],
      "name": "approve",
      "outputs": [],
      "stateMutability": "nonpayable",
      "type": "function"
    },
    {
      "inputs": [
        {
          "internalType": "address",
          "name": "owner",
          "type": "address"
        }
      ],
      "name": "balanceOf",
      "outputs": [
        {
          "internalType": "uint256",
          "name": "",
          "type": "uint256"
        }
      ],
      "stateMutability": "view",
      "type": "function"
    },
    {
      "inputs": [
        {
          "internalType": "uint256",
          "name": "tokenId",
          "type": "uint256"
        }
      ],
      "name": "getApproved",
      "outputs": [
        {
          "internalType": "address",
          "name": "",
          "type": "address"
        }
      ],
      "stateMutability": "view",
      "type": "function"
    },
    {
      "inputs": [
        {
          "internalType": "address",
          "name": "owner",
          "type": "address"
        },
        {
          "internalType": "address",
          "name": "operator",
          "type": "address"
        }
      ],
      "name": "isApprovedForAll",
      "outputs": [
        {
          "internalType": "bool",
          "name": "",
          "type": "bool"
        }
      ],
      "stateMutability": "view",
      "type": "function"
    },
    {
      "inputs": [
        {
          "internalType": "string",
          "name": "_tokenURI",
          "type": "string"
        }
      ],
      "name": "mint",
      "outputs": [
        {
          "internalType": "uint256",
          "name": "",
          "type": "uint256"
        }
      ],
      "stateMutability": "nonpayable",
      "type": "function"
    },
    {
      "inputs": [],
      "name": "name",
      "outputs": [
        {
          "internalType": "string",
          "name": "",
          "type": "string"
        }
      ],
      "stateMutability": "view",
      "type": "function"
    },
    {
      "inputs": [],
      "name": "owner",
      "outputs": [
        {
          "internalType": "address",
          "name": "",
          "type": "address"
        }
      ],
      "stateMutability": "view",
      "type": "function"
    },
    {
      "inputs": [
        {
          "internalType": "uint256",
          "name": "tokenId",
          "type": "uint256"
        }
      ],
      "name": "ownerOf",
      "outputs": [
        {
          "internalType": "address",
          "name": "",
          "type": "address"
        }
      ],
      "stateMutability": "view",
      "type": "function"
    },
    {
      "inputs": [],
      "name": "renounceOwnership",
      "outputs": [],
      "stateMutability": "nonpayable",
      "type": "function"
    },
    {
      "inputs": [
        {
          "internalType": "address",
          "name": "from",
          "type": "address"
        },
        {
          "internalType": "address",
          "name": "to",
          "type": "address"
        },
        {
          "internalType": "uint256",
          "name": "tokenId",
          "type": "uint256"
        }
      ],
      "name": "safeTransferFrom",
      "outputs": [],
      "stateMutability": "nonpayable",
      "type": "function"
    },
    {
      "inputs": [
        {
          "internalType": "address",
          "name": "from",
          "type": "address"
        },
        {
          "internalType": "address",
          "name": "to",
          "type": "address"
        },
        {
          "internalType": "uint256",
          "name": "tokenId",
          "type": "uint256"
        },
        {
          "internalType": "bytes",
          "name": "data",
          "type": "bytes"
        }
      ],
      "name": "safeTransferFrom",
      "outputs": [],
      "stateMutability": "nonpayable",
      "type": "function"
    },
    {
      "inputs": [
        {
          "internalType": "address",
          "name": "operator",
          "type": "address"
        },
        {
          "internalType": "bool",
          "name": "approved",
          "type": "bool"
        }
      ],
      "name": "setApprovalForAll",
      "outputs": [],
      "stateMutability": "nonpayable",
      "type": "function"
    },
    {
      "inputs": [
        {
          "internalType": "bytes4",
          "name": "interfaceId",
          "type": "bytes4"
        }
      ],
      "name": "supportsInterface",
      "outputs": [
        {
          "internalType": "bool",
          "name": "",
          "type": "bool"
        }
      ],
      "stateMutability": "view",
      "type": "function"
    },
    {
      "inputs": [],
      "name": "symbol",
      "outputs": [
        {
          "internalType": "string",
          "name": "",
          "type": "string"
        }
      ],
      "stateMutability": "view",
      "type": "function"
    },
    {
      "inputs": [],
      "name": "tokenCount",
      "outputs": [
        {
          "internalType": "uint256",
          "name": "",
          "type": "uint256"
        }
      ],
      "stateMutability": "view",
      "type": "function"
    },
    {
      "inputs": [
        {
          "internalType": "uint256",
          "name": "tokenId",
          "type": "uint256"
        }
      ],
      "name": "tokenURI",
      "outputs": [
        {
          "internalType": "string",
          "name": "",
          "type": "string"
        }
      ],
      "stateMutability": "view",
      "type": "function"
    },
    {
      "inputs": [
        {
          "internalType": "address",
          "name": "from",
          "type": "address"
        },
        {
          "internalType": "address",
          "name": "to",
          "type": "address"
        },
        {
          "internalType": "uint256",
          "name": "tokenId",
          "type": "uint256"
        }
      ],
      "name": "transferFrom",
      "outputs": [],
      "stateMutability": "nonpayable",
      "type": "function"
    },
    {
      "inputs": [
        {
          "internalType": "address",
          "name": "newOwner",
          "type": "address"
        }
      ],
      "name": "transferOwnership",
      "outputs": [],
      "stateMutability": "nonpayable",
      "type": "function"
    },
    {
      "inputs": [],
      "name": "withdraw",
      "outputs": [],
      "stateMutability": "payable",
      "type": "function"
    }
  ],
  "bytecode": "0x60806040523480156200001157600080fd5b506040518060400160405280601181526020017f506879676974616c2d426565546f6b656e0000000000000000000000000000008152506040518060400160405280600381526020017f5042540000000000000000000000000000000000000000000000000000000000815250816000908051906020019062000096929190620001a6565b508060019080519060200190620000af929190620001a6565b505050620000d2620000c6620000d860201b60201c565b620000e060201b60201c565b620002bb565b600033905090565b6000600760009054906101000a900473ffffffffffffffffffffffffffffffffffffffff16905081600760006101000a81548173ffffffffffffffffffffffffffffffffffffffff021916908373ffffffffffffffffffffffffffffffffffffffff1602179055508173ffffffffffffffffffffffffffffffffffffffff168173ffffffffffffffffffffffffffffffffffffffff167f8be0079c531659141344cd1fd0a4f28419497f9722a3daafe3b4186f6b6457e060405160405180910390a35050565b828054620001b49062000285565b90600052602060002090601f016020900481019282620001d8576000855562000224565b82601f10620001f357805160ff191683800117855562000224565b8280016001018555821562000224579182015b828111156200022357825182559160200191906001019062000206565b5b50905062000233919062000237565b5090565b5b808211156200025257600081600090555060010162000238565b5090565b7f4e487b7100000000000000000000000000000000000000000000000000000000600052602260045260246000fd5b600060028204905060018216806200029e57607f821691505b60208210811415620002b557620002b462000256565b5b50919050565b61318d80620002cb6000396000f3fe6080604052600436106101145760003560e01c8063715018a6116100a0578063b88d4fde11610064578063b88d4fde1461037e578063c87b56dd146103a7578063d85d3d27146103e4578063e985e9c514610421578063f2fde38b1461045e57610114565b8063715018a6146102bd5780638da5cb5b146102d457806395d89b41146102ff5780639f181b5e1461032a578063a22cb4651461035557610114565b806323b872dd116100e757806323b872dd146101e75780633ccfd60b1461021057806342842e0e1461021a5780636352211e1461024357806370a082311461028057610114565b806301ffc9a71461011957806306fdde0314610156578063081812fc14610181578063095ea7b3146101be575b600080fd5b34801561012557600080fd5b50610140600480360381019061013b9190612032565b610487565b60405161014d919061207a565b60405180910390f35b34801561016257600080fd5b5061016b610569565b604051610178919061212e565b60405180910390f35b34801561018d57600080fd5b506101a860048036038101906101a39190612186565b6105fb565b6040516101b591906121f4565b60405180910390f35b3480156101ca57600080fd5b506101e560048036038101906101e0919061223b565b610641565b005b3480156101f357600080fd5b5061020e6004803603810190610209919061227b565b610759565b005b6102186107b9565b005b34801561022657600080fd5b50610241600480360381019061023c919061227b565b6108e4565b005b34801561024f57600080fd5b5061026a60048036038101906102659190612186565b610904565b60405161027791906121f4565b60405180910390f35b34801561028c57600080fd5b506102a760048036038101906102a291906122ce565b61098b565b6040516102b4919061230a565b60405180910390f35b3480156102c957600080fd5b506102d2610a43565b005b3480156102e057600080fd5b506102e9610a57565b6040516102f691906121f4565b60405180910390f35b34801561030b57600080fd5b50610314610a81565b604051610321919061212e565b60405180910390f35b34801561033657600080fd5b5061033f610b13565b60405161034c919061230a565b60405180910390f35b34801561036157600080fd5b5061037c60048036038101906103779190612351565b610b19565b005b34801561038a57600080fd5b506103a560048036038101906103a091906124c6565b610b2f565b005b3480156103b357600080fd5b506103ce60048036038101906103c99190612186565b610b91565b6040516103db919061212e565b60405180910390f35b3480156103f057600080fd5b5061040b600480360381019061040691906125ea565b610ca4565b604051610418919061230a565b60405180910390f35b34801561042d57600080fd5b5061044860048036038101906104439190612633565b610ce0565b604051610455919061207a565b60405180910390f35b34801561046a57600080fd5b50610485600480360381019061048091906122ce565b610d74565b005b60007f80ac58cd000000000000000000000000000000000000000000000000000000007bffffffffffffffffffffffffffffffffffffffffffffffffffffffff1916827bffffffffffffffffffffffffffffffffffffffffffffffffffffffff1916148061055257507f5b5e139f000000000000000000000000000000000000000000000000000000007bffffffffffffffffffffffffffffffffffffffffffffffffffffffff1916827bffffffffffffffffffffffffffffffffffffffffffffffffffffffff1916145b80610562575061056182610df8565b5b9050919050565b606060008054610578906126a2565b80601f01602080910402602001604051908101604052809291908181526020018280546105a4906126a2565b80156105f15780601f106105c6576101008083540402835291602001916105f1565b820191906000526020600020905b8154815290600101906020018083116105d457829003601f168201915b5050505050905090565b600061060682610e62565b6004600083815260200190815260200160002060009054906101000a900473ffffffffffffffffffffffffffffffffffffffff169050919050565b600061064c82610904565b90508073ffffffffffffffffffffffffffffffffffffffff168373ffffffffffffffffffffffffffffffffffffffff1614156106bd576040517f08c379a00000000000000000000000000000000000000000000000000000000081526004016106b490612746565b60405180910390fd5b8073ffffffffffffffffffffffffffffffffffffffff166106dc610ead565b73ffffffffffffffffffffffffffffffffffffffff16148061070b575061070a81610705610ead565b610ce0565b5b61074a576040517f08c379a0000000000000000000000000000000000000000000000000000000008152600401610741906127d8565b60405180910390fd5b6107548383610eb5565b505050565b61076a610764610ead565b82610f6e565b6107a9576040517f08c379a00000000000000000000000000000000000000000000000000000000081526004016107a09061286a565b60405180910390fd5b6107b4838383611003565b505050565b6107c16112fd565b600073a661cbcc7f0c4805b08501793d67ef668b8133a173ffffffffffffffffffffffffffffffffffffffff1660646005476107fd91906128b9565b6108079190612942565b604051610813906129a4565b60006040518083038185875af1925050503d8060008114610850576040519150601f19603f3d011682016040523d82523d6000602084013e610855565b606091505b505090508061086357600080fd5b600061086d610a57565b73ffffffffffffffffffffffffffffffffffffffff1647604051610890906129a4565b60006040518083038185875af1925050503d80600081146108cd576040519150601f19603f3d011682016040523d82523d6000602084013e6108d2565b606091505b50509050806108e057600080fd5b5050565b6108ff83838360405180602001604052806000815250610b2f565b505050565b6000806109108361137b565b9050600073ffffffffffffffffffffffffffffffffffffffff168173ffffffffffffffffffffffffffffffffffffffff161415610982576040517f08c379a000000000000000000000000000000000000000000000000000000000815260040161097990612a05565b60405180910390fd5b80915050919050565b60008073ffffffffffffffffffffffffffffffffffffffff168273ffffffffffffffffffffffffffffffffffffffff1614156109fc576040517f08c379a00000000000000000000000000000000000000000000000000000000081526004016109f390612a97565b60405180910390fd5b600360008373ffffffffffffffffffffffffffffffffffffffff1673ffffffffffffffffffffffffffffffffffffffff168152602001908152602001600020549050919050565b610a4b6112fd565b610a5560006113b8565b565b6000600760009054906101000a900473ffffffffffffffffffffffffffffffffffffffff16905090565b606060018054610a90906126a2565b80601f0160208091040260200160405190810160405280929190818152602001828054610abc906126a2565b8015610b095780601f10610ade57610100808354040283529160200191610b09565b820191906000526020600020905b815481529060010190602001808311610aec57829003601f168201915b5050505050905090565b60085481565b610b2b610b24610ead565b838361147e565b5050565b610b40610b3a610ead565b83610f6e565b610b7f576040517f08c379a0000000000000000000000000000000000000000000000000000000008152600401610b769061286a565b60405180910390fd5b610b8b848484846115eb565b50505050565b6060610b9c82610e62565b6000600660008481526020019081526020016000208054610bbc906126a2565b80601f0160208091040260200160405190810160405280929190818152602001828054610be8906126a2565b8015610c355780601f10610c0a57610100808354040283529160200191610c35565b820191906000526020600020905b815481529060010190602001808311610c1857829003601f168201915b505050505090506000610c46611647565b9050600081511415610c5c578192505050610c9f565b600082511115610c91578082604051602001610c79929190612af3565b60405160208183030381529060405292505050610c9f565b610c9a8461165e565b925050505b919050565b600060086000815480929190610cb990612b17565b9190505550610cca336008546116c6565b610cd6600854836116e4565b6008549050919050565b6000600560008473ffffffffffffffffffffffffffffffffffffffff1673ffffffffffffffffffffffffffffffffffffffff16815260200190815260200160002060008373ffffffffffffffffffffffffffffffffffffffff1673ffffffffffffffffffffffffffffffffffffffff16815260200190815260200160002060009054906101000a900460ff16905092915050565b610d7c6112fd565b600073ffffffffffffffffffffffffffffffffffffffff168173ffffffffffffffffffffffffffffffffffffffff161415610dec576040517f08c379a0000000000000000000000000000000000000000000000000000000008152600401610de390612bd2565b60405180910390fd5b610df5816113b8565b50565b60007f01ffc9a7000000000000000000000000000000000000000000000000000000007bffffffffffffffffffffffffffffffffffffffffffffffffffffffff1916827bffffffffffffffffffffffffffffffffffffffffffffffffffffffff1916149050919050565b610e6b81611758565b610eaa576040517f08c379a0000000000000000000000000000000000000000000000000000000008152600401610ea190612a05565b60405180910390fd5b50565b600033905090565b816004600083815260200190815260200160002060006101000a81548173ffffffffffffffffffffffffffffffffffffffff021916908373ffffffffffffffffffffffffffffffffffffffff160217905550808273ffffffffffffffffffffffffffffffffffffffff16610f2883610904565b73ffffffffffffffffffffffffffffffffffffffff167f8c5be1e5ebec7d5bd14f71427d1e84f3dd0314c0f7b2291e5b200ac8c7c3b92560405160405180910390a45050565b600080610f7a83610904565b90508073ffffffffffffffffffffffffffffffffffffffff168473ffffffffffffffffffffffffffffffffffffffff161480610fbc5750610fbb8185610ce0565b5b80610ffa57508373ffffffffffffffffffffffffffffffffffffffff16610fe2846105fb565b73ffffffffffffffffffffffffffffffffffffffff16145b91505092915050565b8273ffffffffffffffffffffffffffffffffffffffff1661102382610904565b73ffffffffffffffffffffffffffffffffffffffff1614611079576040517f08c379a000000000000000000000000000000000000000000000000000000000815260040161107090612c64565b60405180910390fd5b600073ffffffffffffffffffffffffffffffffffffffff168273ffffffffffffffffffffffffffffffffffffffff1614156110e9576040517f08c379a00000000000000000000000000000000000000000000000000000000081526004016110e090612cf6565b60405180910390fd5b6110f68383836001611799565b8273ffffffffffffffffffffffffffffffffffffffff1661111682610904565b73ffffffffffffffffffffffffffffffffffffffff161461116c576040517f08c379a000000000000000000000000000000000000000000000000000000000815260040161116390612c64565b60405180910390fd5b6004600082815260200190815260200160002060006101000a81549073ffffffffffffffffffffffffffffffffffffffff02191690556001600360008573ffffffffffffffffffffffffffffffffffffffff1673ffffffffffffffffffffffffffffffffffffffff168152602001908152602001600020600082825403925050819055506001600360008473ffffffffffffffffffffffffffffffffffffffff1673ffffffffffffffffffffffffffffffffffffffff16815260200190815260200160002060008282540192505081905550816002600083815260200190815260200160002060006101000a81548173ffffffffffffffffffffffffffffffffffffffff021916908373ffffffffffffffffffffffffffffffffffffffff160217905550808273ffffffffffffffffffffffffffffffffffffffff168473ffffffffffffffffffffffffffffffffffffffff167fddf252ad1be2c89b69c2b068fc378daa952ba7f163c4a11628f55a4df523b3ef60405160405180910390a46112f883838360016118bf565b505050565b611305610ead565b73ffffffffffffffffffffffffffffffffffffffff16611323610a57565b73ffffffffffffffffffffffffffffffffffffffff1614611379576040517f08c379a000000000000000000000000000000000000000000000000000000000815260040161137090612d62565b60405180910390fd5b565b60006002600083815260200190815260200160002060009054906101000a900473ffffffffffffffffffffffffffffffffffffffff169050919050565b6000600760009054906101000a900473ffffffffffffffffffffffffffffffffffffffff16905081600760006101000a81548173ffffffffffffffffffffffffffffffffffffffff021916908373ffffffffffffffffffffffffffffffffffffffff1602179055508173ffffffffffffffffffffffffffffffffffffffff168173ffffffffffffffffffffffffffffffffffffffff167f8be0079c531659141344cd1fd0a4f28419497f9722a3daafe3b4186f6b6457e060405160405180910390a35050565b8173ffffffffffffffffffffffffffffffffffffffff168373ffffffffffffffffffffffffffffffffffffffff1614156114ed576040517f08c379a00000000000000000000000000000000000000000000000000000000081526004016114e490612dce565b60405180910390fd5b80600560008573ffffffffffffffffffffffffffffffffffffffff1673ffffffffffffffffffffffffffffffffffffffff16815260200190815260200160002060008473ffffffffffffffffffffffffffffffffffffffff1673ffffffffffffffffffffffffffffffffffffffff16815260200190815260200160002060006101000a81548160ff0219169083151502179055508173ffffffffffffffffffffffffffffffffffffffff168373ffffffffffffffffffffffffffffffffffffffff167f17307eab39ab6107e8899845ad3d59bd9653f200f220920489ca2b5937696c31836040516115de919061207a565b60405180910390a3505050565b6115f6848484611003565b611602848484846118c5565b611641576040517f08c379a000000000000000000000000000000000000000000000000000000000815260040161163890612e60565b60405180910390fd5b50505050565b606060405180602001604052806000815250905090565b606061166982610e62565b6000611673611647565b9050600081511161169357604051806020016040528060008152506116be565b8061169d84611a5c565b6040516020016116ae929190612af3565b6040516020818303038152906040525b915050919050565b6116e0828260405180602001604052806000815250611b34565b5050565b6116ed82611758565b61172c576040517f08c379a000000000000000000000000000000000000000000000000000000000815260040161172390612ef2565b60405180910390fd5b80600660008481526020019081526020016000209080519060200190611753929190611f23565b505050565b60008073ffffffffffffffffffffffffffffffffffffffff1661177a8361137b565b73ffffffffffffffffffffffffffffffffffffffff1614159050919050565b60018111156118b957600073ffffffffffffffffffffffffffffffffffffffff168473ffffffffffffffffffffffffffffffffffffffff161461182d5780600360008673ffffffffffffffffffffffffffffffffffffffff1673ffffffffffffffffffffffffffffffffffffffff16815260200190815260200160002060008282546118259190612f12565b925050819055505b600073ffffffffffffffffffffffffffffffffffffffff168373ffffffffffffffffffffffffffffffffffffffff16146118b85780600360008573ffffffffffffffffffffffffffffffffffffffff1673ffffffffffffffffffffffffffffffffffffffff16815260200190815260200160002060008282546118b09190612f46565b925050819055505b5b50505050565b50505050565b60006118e68473ffffffffffffffffffffffffffffffffffffffff16611b8f565b15611a4f578373ffffffffffffffffffffffffffffffffffffffff1663150b7a0261190f610ead565b8786866040518563ffffffff1660e01b81526004016119319493929190612ff1565b602060405180830381600087803b15801561194b57600080fd5b505af192505050801561197c57506040513d601f19601f820116820180604052508101906119799190613052565b60015b6119ff573d80600081146119ac576040519150601f19603f3d011682016040523d82523d6000602084013e6119b1565b606091505b506000815114156119f7576040517f08c379a00000000000000000000000000000000000000000000000000000000081526004016119ee90612e60565b60405180910390fd5b805181602001fd5b63150b7a0260e01b7bffffffffffffffffffffffffffffffffffffffffffffffffffffffff1916817bffffffffffffffffffffffffffffffffffffffffffffffffffffffff191614915050611a54565b600190505b949350505050565b606060006001611a6b84611bb2565b01905060008167ffffffffffffffff811115611a8a57611a8961239b565b5b6040519080825280601f01601f191660200182016040528015611abc5781602001600182028036833780820191505090505b509050600082602001820190505b600115611b29578080600190039150507f3031323334353637383961626364656600000000000000000000000000000000600a86061a8153600a8581611b1357611b12612913565b5b0494506000851415611b2457611b29565b611aca565b819350505050919050565b611b3e8383611d05565b611b4b60008484846118c5565b611b8a576040517f08c379a0000000000000000000000000000000000000000000000000000000008152600401611b8190612e60565b60405180910390fd5b505050565b6000808273ffffffffffffffffffffffffffffffffffffffff163b119050919050565b600080600090507a184f03e93ff9f4daa797ed6e38ed64bf6a1f0100000000000000008310611c10577a184f03e93ff9f4daa797ed6e38ed64bf6a1f0100000000000000008381611c0657611c05612913565b5b0492506040810190505b6d04ee2d6d415b85acef81000000008310611c4d576d04ee2d6d415b85acef81000000008381611c4357611c42612913565b5b0492506020810190505b662386f26fc100008310611c7c57662386f26fc100008381611c7257611c71612913565b5b0492506010810190505b6305f5e1008310611ca5576305f5e1008381611c9b57611c9a612913565b5b0492506008810190505b6127108310611cca576127108381611cc057611cbf612913565b5b0492506004810190505b60648310611ced5760648381611ce357611ce2612913565b5b0492506002810190505b600a8310611cfc576001810190505b80915050919050565b600073ffffffffffffffffffffffffffffffffffffffff168273ffffffffffffffffffffffffffffffffffffffff161415611d75576040517f08c379a0000000000000000000000000000000000000000000000000000000008152600401611d6c906130cb565b60405180910390fd5b611d7e81611758565b15611dbe576040517f08c379a0000000000000000000000000000000000000000000000000000000008152600401611db590613137565b60405180910390fd5b611dcc600083836001611799565b611dd581611758565b15611e15576040517f08c379a0000000000000000000000000000000000000000000000000000000008152600401611e0c90613137565b60405180910390fd5b6001600360008473ffffffffffffffffffffffffffffffffffffffff1673ffffffffffffffffffffffffffffffffffffffff16815260200190815260200160002060008282540192505081905550816002600083815260200190815260200160002060006101000a81548173ffffffffffffffffffffffffffffffffffffffff021916908373ffffffffffffffffffffffffffffffffffffffff160217905550808273ffffffffffffffffffffffffffffffffffffffff16600073ffffffffffffffffffffffffffffffffffffffff167fddf252ad1be2c89b69c2b068fc378daa952ba7f163c4a11628f55a4df523b3ef60405160405180910390a4611f1f6000838360016118bf565b5050565b828054611f2f906126a2565b90600052602060002090601f016020900481019282611f515760008555611f98565b82601f10611f6a57805160ff1916838001178555611f98565b82800160010185558215611f98579182015b82811115611f97578251825591602001919060010190611f7c565b5b509050611fa59190611fa9565b5090565b5b80821115611fc2576000816000905550600101611faa565b5090565b6000604051905090565b600080fd5b600080fd5b60007fffffffff0000000000000000000000000000000000000000000000000000000082169050919050565b61200f81611fda565b811461201a57600080fd5b50565b60008135905061202c81612006565b92915050565b60006020828403121561204857612047611fd0565b5b60006120568482850161201d565b91505092915050565b60008115159050919050565b6120748161205f565b82525050565b600060208201905061208f600083018461206b565b92915050565b600081519050919050565b600082825260208201905092915050565b60005b838110156120cf5780820151818401526020810190506120b4565b838111156120de576000848401525b50505050565b6000601f19601f8301169050919050565b600061210082612095565b61210a81856120a0565b935061211a8185602086016120b1565b612123816120e4565b840191505092915050565b6000602082019050818103600083015261214881846120f5565b905092915050565b6000819050919050565b61216381612150565b811461216e57600080fd5b50565b6000813590506121808161215a565b92915050565b60006020828403121561219c5761219b611fd0565b5b60006121aa84828501612171565b91505092915050565b600073ffffffffffffffffffffffffffffffffffffffff82169050919050565b60006121de826121b3565b9050919050565b6121ee816121d3565b82525050565b600060208201905061220960008301846121e5565b92915050565b612218816121d3565b811461222357600080fd5b50565b6000813590506122358161220f565b92915050565b6000806040838503121561225257612251611fd0565b5b600061226085828601612226565b925050602061227185828601612171565b9150509250929050565b60008060006060848603121561229457612293611fd0565b5b60006122a286828701612226565b93505060206122b386828701612226565b92505060406122c486828701612171565b9150509250925092565b6000602082840312156122e4576122e3611fd0565b5b60006122f284828501612226565b91505092915050565b61230481612150565b82525050565b600060208201905061231f60008301846122fb565b92915050565b61232e8161205f565b811461233957600080fd5b50565b60008135905061234b81612325565b92915050565b6000806040838503121561236857612367611fd0565b5b600061237685828601612226565b92505060206123878582860161233c565b9150509250929050565b600080fd5b600080fd5b7f4e487b7100000000000000000000000000000000000000000000000000000000600052604160045260246000fd5b6123d3826120e4565b810181811067ffffffffffffffff821117156123f2576123f161239b565b5b80604052505050565b6000612405611fc6565b905061241182826123ca565b919050565b600067ffffffffffffffff8211156124315761243061239b565b5b61243a826120e4565b9050602081019050919050565b82818337600083830152505050565b600061246961246484612416565b6123fb565b90508281526020810184848401111561248557612484612396565b5b612490848285612447565b509392505050565b600082601f8301126124ad576124ac612391565b5b81356124bd848260208601612456565b91505092915050565b600080600080608085870312156124e0576124df611fd0565b5b60006124ee87828801612226565b94505060206124ff87828801612226565b935050604061251087828801612171565b925050606085013567ffffffffffffffff81111561253157612530611fd5565b5b61253d87828801612498565b91505092959194509250565b600067ffffffffffffffff8211156125645761256361239b565b5b61256d826120e4565b9050602081019050919050565b600061258d61258884612549565b6123fb565b9050828152602081018484840111156125a9576125a8612396565b5b6125b4848285612447565b509392505050565b600082601f8301126125d1576125d0612391565b5b81356125e184826020860161257a565b91505092915050565b600060208284031215612600576125ff611fd0565b5b600082013567ffffffffffffffff81111561261e5761261d611fd5565b5b61262a848285016125bc565b91505092915050565b6000806040838503121561264a57612649611fd0565b5b600061265885828601612226565b925050602061266985828601612226565b9150509250929050565b7f4e487b7100000000000000000000000000000000000000000000000000000000600052602260045260246000fd5b600060028204905060018216806126ba57607f821691505b602082108114156126ce576126cd612673565b5b50919050565b7f4552433732313a20617070726f76616c20746f2063757272656e74206f776e6560008201527f7200000000000000000000000000000000000000000000000000000000000000602082015250565b60006127306021836120a0565b915061273b826126d4565b604082019050919050565b6000602082019050818103600083015261275f81612723565b9050919050565b7f4552433732313a20617070726f76652063616c6c6572206973206e6f7420746f60008201527f6b656e206f776e6572206f7220617070726f76656420666f7220616c6c000000602082015250565b60006127c2603d836120a0565b91506127cd82612766565b604082019050919050565b600060208201905081810360008301526127f1816127b5565b9050919050565b7f4552433732313a2063616c6c6572206973206e6f7420746f6b656e206f776e6560008201527f72206f7220617070726f76656400000000000000000000000000000000000000602082015250565b6000612854602d836120a0565b915061285f826127f8565b604082019050919050565b6000602082019050818103600083015261288381612847565b9050919050565b7f4e487b7100000000000000000000000000000000000000000000000000000000600052601160045260246000fd5b60006128c482612150565b91506128cf83612150565b9250817fffffffffffffffffffffffffffffffffffffffffffffffffffffffffffffffff04831182151516156129085761290761288a565b5b828202905092915050565b7f4e487b7100000000000000000000000000000000000000000000000000000000600052601260045260246000fd5b600061294d82612150565b915061295883612150565b92508261296857612967612913565b5b828204905092915050565b600081905092915050565b50565b600061298e600083612973565b91506129998261297e565b600082019050919050565b60006129af82612981565b9150819050919050565b7f4552433732313a20696e76616c696420746f6b656e2049440000000000000000600082015250565b60006129ef6018836120a0565b91506129fa826129b9565b602082019050919050565b60006020820190508181036000830152612a1e816129e2565b9050919050565b7f4552433732313a2061646472657373207a65726f206973206e6f74206120766160008201527f6c6964206f776e65720000000000000000000000000000000000000000000000602082015250565b6000612a816029836120a0565b9150612a8c82612a25565b604082019050919050565b60006020820190508181036000830152612ab081612a74565b9050919050565b600081905092915050565b6000612acd82612095565b612ad78185612ab7565b9350612ae78185602086016120b1565b80840191505092915050565b6000612aff8285612ac2565b9150612b0b8284612ac2565b91508190509392505050565b6000612b2282612150565b91507fffffffffffffffffffffffffffffffffffffffffffffffffffffffffffffffff821415612b5557612b5461288a565b5b600182019050919050565b7f4f776e61626c653a206e6577206f776e657220697320746865207a65726f206160008201527f6464726573730000000000000000000000000000000000000000000000000000602082015250565b6000612bbc6026836120a0565b9150612bc782612b60565b604082019050919050565b60006020820190508181036000830152612beb81612baf565b9050919050565b7f4552433732313a207472616e736665722066726f6d20696e636f72726563742060008201527f6f776e6572000000000000000000000000000000000000000000000000000000602082015250565b6000612c4e6025836120a0565b9150612c5982612bf2565b604082019050919050565b60006020820190508181036000830152612c7d81612c41565b9050919050565b7f4552433732313a207472616e7366657220746f20746865207a65726f2061646460008201527f7265737300000000000000000000000000000000000000000000000000000000602082015250565b6000612ce06024836120a0565b9150612ceb82612c84565b604082019050919050565b60006020820190508181036000830152612d0f81612cd3565b9050919050565b7f4f776e61626c653a2063616c6c6572206973206e6f7420746865206f776e6572600082015250565b6000612d4c6020836120a0565b9150612d5782612d16565b602082019050919050565b60006020820190508181036000830152612d7b81612d3f565b9050919050565b7f4552433732313a20617070726f766520746f2063616c6c657200000000000000600082015250565b6000612db86019836120a0565b9150612dc382612d82565b602082019050919050565b60006020820190508181036000830152612de781612dab565b9050919050565b7f4552433732313a207472616e7366657220746f206e6f6e20455243373231526560008201527f63656976657220696d706c656d656e7465720000000000000000000000000000602082015250565b6000612e4a6032836120a0565b9150612e5582612dee565b604082019050919050565b60006020820190508181036000830152612e7981612e3d565b9050919050565b7f45524337323155524953746f726167653a2055524920736574206f66206e6f6e60008201527f6578697374656e7420746f6b656e000000000000000000000000000000000000602082015250565b6000612edc602e836120a0565b9150612ee782612e80565b604082019050919050565b60006020820190508181036000830152612f0b81612ecf565b9050919050565b6000612f1d82612150565b9150612f2883612150565b925082821015612f3b57612f3a61288a565b5b828203905092915050565b6000612f5182612150565b9150612f5c83612150565b9250827fffffffffffffffffffffffffffffffffffffffffffffffffffffffffffffffff03821115612f9157612f9061288a565b5b828201905092915050565b600081519050919050565b600082825260208201905092915050565b6000612fc382612f9c565b612fcd8185612fa7565b9350612fdd8185602086016120b1565b612fe6816120e4565b840191505092915050565b600060808201905061300660008301876121e5565b61301360208301866121e5565b61302060408301856122fb565b81810360608301526130328184612fb8565b905095945050505050565b60008151905061304c81612006565b92915050565b60006020828403121561306857613067611fd0565b5b60006130768482850161303d565b91505092915050565b7f4552433732313a206d696e7420746f20746865207a65726f2061646472657373600082015250565b60006130b56020836120a0565b91506130c08261307f565b602082019050919050565b600060208201905081810360008301526130e4816130a8565b9050919050565b7f4552433732313a20746f6b656e20616c7265616479206d696e74656400000000600082015250565b6000613121601c836120a0565b915061312c826130eb565b602082019050919050565b6000602082019050818103600083015261315081613114565b905091905056fea26469706673582212207be1706974bdae5c9a2b3d15d00ca790cf4b6a1bb0ce16759b63e939b54009bf64736f6c63430008090033",
  "linkReferences": {},
  "deployedLinkReferences": {}
}