{
  "_format": "hh-sol-artifact-1",
  "contractName": "beeTokenEscrow",
  "sourceName": "contracts/beeTokenEscrow.sol",
  "abi": [
    {
      "inputs": [],
      "stateMutability": "nonpayable",
      "type": "constructor"
    },
    {
      "inputs": [],
      "name": "buyer",
      "outputs": [
        {
          "internalType": "address payable",
          "name": "",
          "type": "address"
        }
      ],
      "stateMutability": "view",
      "type": "function"
    },
    {
      "inputs": [
        {
          "internalType": "uint256",
          "name": "_tokenId",
          "type": "uint256"
        }
      ],
      "name": "cancelBeforeDelivery",
      "outputs": [],
      "stateMutability": "nonpayable",
      "type": "function"
    },
    {
      "inputs": [
        {
          "internalType": "uint256",
          "name": "_tokenId",
          "type": "uint256"
        }
      ],
      "name": "confirmDeliveryFinalizeSale",
      "outputs": [],
      "stateMutability": "nonpayable",
      "type": "function"
    },
    {
      "inputs": [
        {
          "internalType": "uint256",
          "name": "_tokenId",
          "type": "uint256"
        }
      ],
      "name": "depositETH",
      "outputs": [],
      "stateMutability": "payable",
      "type": "function"
    },
    {
      "inputs": [],
      "name": "feeAccount",
      "outputs": [
        {
          "internalType": "address payable",
          "name": "",
          "type": "address"
        }
      ],
      "stateMutability": "view",
      "type": "function"
    },
    {
      "inputs": [],
      "name": "feePercent",
      "outputs": [
        {
          "internalType": "uint256",
          "name": "",
          "type": "uint256"
        }
      ],
      "stateMutability": "view",
      "type": "function"
    },
    {
      "inputs": [
        {
          "internalType": "uint256",
          "name": "_tokenId",
          "type": "uint256"
        }
      ],
      "name": "getTotalPrice",
      "outputs": [
        {
          "internalType": "uint256",
          "name": "",
          "type": "uint256"
        }
      ],
      "stateMutability": "view",
      "type": "function"
    },
    {
      "inputs": [
        {
          "internalType": "uint256",
          "name": "_tokenId",
          "type": "uint256"
        }
      ],
      "name": "initiateDelivery",
      "outputs": [],
      "stateMutability": "nonpayable",
      "type": "function"
    },
    {
      "inputs": [],
      "name": "itemCount",
      "outputs": [
        {
          "internalType": "uint256",
          "name": "",
          "type": "uint256"
        }
      ],
      "stateMutability": "view",
      "type": "function"
    },
    {
      "inputs": [
        {
          "internalType": "uint256",
          "name": "",
          "type": "uint256"
        }
      ],
      "name": "items",
      "outputs": [
        {
          "internalType": "uint256",
          "name": "itemId",
          "type": "uint256"
        },
        {
          "internalType": "uint256",
          "name": "tokenId",
          "type": "uint256"
        },
        {
          "internalType": "contract IERC721",
          "name": "nft",
          "type": "address"
        },
        {
          "internalType": "uint256",
          "name": "price",
          "type": "uint256"
        },
        {
          "internalType": "address payable",
          "name": "seller",
          "type": "address"
        },
        {
          "internalType": "bool",
          "name": "sold",
          "type": "bool"
        },
        {
          "internalType": "enum beeTokenEscrow.ItemState",
          "name": "state",
          "type": "uint8"
        }
      ],
      "stateMutability": "view",
      "type": "function"
    },
    {
      "inputs": [
        {
          "internalType": "contract IERC721",
          "name": "_nft",
          "type": "address"
        },
        {
          "internalType": "uint256",
          "name": "_tokenId",
          "type": "uint256"
        },
        {
          "internalType": "uint256",
          "name": "_price",
          "type": "uint256"
        }
      ],
      "name": "listNFT",
      "outputs": [],
      "stateMutability": "nonpayable",
      "type": "function"
    },
    {
      "inputs": [
        {
          "internalType": "uint256",
          "name": "_tokenId",
          "type": "uint256"
        }
      ],
      "name": "reverseNftTransfer",
      "outputs": [],
      "stateMutability": "nonpayable",
      "type": "function"
    },
    {
      "inputs": [],
      "name": "seller",
      "outputs": [
        {
          "internalType": "address payable",
          "name": "",
          "type": "address"
        }
      ],
      "stateMutability": "view",
      "type": "function"
    },
    {
      "inputs": [
        {
          "internalType": "uint256",
          "name": "tokenId",
          "type": "uint256"
        },
        {
          "internalType": "enum beeTokenEscrow.ItemState",
          "name": "newState",
          "type": "uint8"
        }
      ],
      "name": "setItemStateByTokenId",
      "outputs": [],
      "stateMutability": "nonpayable",
      "type": "function"
    }
  ],
  "bytecode": "0x60c0604052600160a09081525034801561001857600080fd5b5060016000819055503373ffffffffffffffffffffffffffffffffffffffff1660808173ffffffffffffffffffffffffffffffffffffffff168152505060805160a05161198c61008f6000396000818161059e0152818161083b0152610fdb0152600081816104d80152610769015261198c6000f3fe6080604052600436106100dd5760003560e01c80637fd6f15c1161007f578063ad05f1b411610059578063ad05f1b414610279578063bc3d1f5d146102a2578063bfb231d2146102cb578063ca7dd3751461030e576100dd565b80637fd6f15c146101fc57806399c8606114610227578063aa41403e14610250576100dd565b806365e17c9d116100bb57806365e17c9d146101525780636bfb0d011461017d5780637150d8ae146101a857806373a2b9b5146101d3576100dd565b806308551a53146100e25780634c91c6651461010d5780635358fbda14610136575b600080fd5b3480156100ee57600080fd5b506100f761034b565b6040516101049190611128565b60405180910390f35b34801561011957600080fd5b50610134600480360381019061012f91906111a3565b610371565b005b610150600480360381019061014b91906111e3565b610436565b005b34801561015e57600080fd5b506101676104d6565b6040516101749190611128565b60405180910390f35b34801561018957600080fd5b506101926104fa565b60405161019f919061121f565b60405180910390f35b3480156101b457600080fd5b506101bd610500565b6040516101ca9190611128565b60405180910390f35b3480156101df57600080fd5b506101fa60048036038101906101f591906111e3565b610526565b005b34801561020857600080fd5b50610211610839565b60405161021e919061121f565b60405180910390f35b34801561023357600080fd5b5061024e600480360381019061024991906111e3565b61085d565b005b34801561025c57600080fd5b50610277600480360381019061027291906111e3565b6108c5565b005b34801561028557600080fd5b506102a0600480360381019061029b919061128a565b610a5d565b005b3480156102ae57600080fd5b506102c960048036038101906102c491906111e3565b610d06565b005b3480156102d757600080fd5b506102f260048036038101906102ed91906111e3565b610f0c565b60405161030597969594939291906113ce565b60405180910390f35b34801561031a57600080fd5b50610335600480360381019061033091906111e3565b610fa8565b604051610342919061121f565b60405180910390f35b600260009054906101000a900473ffffffffffffffffffffffffffffffffffffffff1681565b6000600190505b60015481116103f65782600560008381526020019081526020016000206001015414156103e357816005600083815260200190815260200160002060040160156101000a81548160ff021916908360068111156103d8576103d7611357565b5b021790555050610432565b80806103ee9061146c565b915050610378565b506040517f08c379a000000000000000000000000000000000000000000000000000000000815260040161042990611538565b60405180910390fd5b5050565b33600360006101000a81548173ffffffffffffffffffffffffffffffffffffffff021916908373ffffffffffffffffffffffffffffffffffffffff160217905550600061048282610fa8565b9050803410156104c7576040517f08c379a00000000000000000000000000000000000000000000000000000000081526004016104be906115ca565b60405180910390fd5b6104d2826003610371565b5050565b7f000000000000000000000000000000000000000000000000000000000000000081565b60015481565b600360009054906101000a900473ffffffffffffffffffffffffffffffffffffffff1681565b600360009054906101000a900473ffffffffffffffffffffffffffffffffffffffff1673ffffffffffffffffffffffffffffffffffffffff163373ffffffffffffffffffffffffffffffffffffffff161461058057600080fd5b61058b816006610371565b600061059682610fa8565b9050600060647f0000000000000000000000000000000000000000000000000000000000000000836105c891906115ea565b6105d29190611673565b9050600081836105e291906116a4565b9050600460009054906101000a900473ffffffffffffffffffffffffffffffffffffffff1673ffffffffffffffffffffffffffffffffffffffff166342842e0e30600360009054906101000a900473ffffffffffffffffffffffffffffffffffffffff16876040518463ffffffff1660e01b815260040161066593929190611708565b600060405180830381600087803b15801561067f57600080fd5b505af1158015610693573d6000803e3d6000fd5b505050506000600260009054906101000a900473ffffffffffffffffffffffffffffffffffffffff1673ffffffffffffffffffffffffffffffffffffffff16826040516106df90611770565b60006040518083038185875af1925050503d806000811461071c576040519150601f19603f3d011682016040523d82523d6000602084013e610721565b606091505b5050905080610765576040517f08c379a000000000000000000000000000000000000000000000000000000000815260040161075c906117d1565b60405180910390fd5b60007f000000000000000000000000000000000000000000000000000000000000000073ffffffffffffffffffffffffffffffffffffffff16846040516107ab90611770565b60006040518083038185875af1925050503d80600081146107e8576040519150601f19603f3d011682016040523d82523d6000602084013e6107ed565b606091505b5050905080610831576040517f08c379a00000000000000000000000000000000000000000000000000000000081526004016108289061183d565b60405180910390fd5b505050505050565b7f000000000000000000000000000000000000000000000000000000000000000081565b600260009054906101000a900473ffffffffffffffffffffffffffffffffffffffff1673ffffffffffffffffffffffffffffffffffffffff163373ffffffffffffffffffffffffffffffffffffffff16146108b757600080fd5b6108c2816005610371565b50565b600260009054906101000a900473ffffffffffffffffffffffffffffffffffffffff1673ffffffffffffffffffffffffffffffffffffffff163373ffffffffffffffffffffffffffffffffffffffff161461091f57600080fd5b6005600082815260200190815260200160002060020160009054906101000a900473ffffffffffffffffffffffffffffffffffffffff1673ffffffffffffffffffffffffffffffffffffffff166342842e0e30600260009054906101000a900473ffffffffffffffffffffffffffffffffffffffff16846040518463ffffffff1660e01b81526004016109b493929190611708565b600060405180830381600087803b1580156109ce57600080fd5b505af11580156109e2573d6000803e3d6000fd5b505050506109f1816002610371565b600360009054906101000a900473ffffffffffffffffffffffffffffffffffffffff1673ffffffffffffffffffffffffffffffffffffffff166108fc479081150290604051600060405180830381858888f19350505050158015610a59573d6000803e3d6000fd5b5050565b610a6561108d565b60016000815480929190610a789061146c565b919050555033600260006101000a81548173ffffffffffffffffffffffffffffffffffffffff021916908373ffffffffffffffffffffffffffffffffffffffff16021790555082600460006101000a81548173ffffffffffffffffffffffffffffffffffffffff021916908373ffffffffffffffffffffffffffffffffffffffff1602179055508273ffffffffffffffffffffffffffffffffffffffff166323b872dd3330856040518463ffffffff1660e01b8152600401610b3c9392919061185d565b600060405180830381600087803b158015610b5657600080fd5b505af1158015610b6a573d6000803e3d6000fd5b505050506040518060e0016040528060015481526020018381526020018473ffffffffffffffffffffffffffffffffffffffff1681526020018281526020013373ffffffffffffffffffffffffffffffffffffffff16815260200160001515815260200160016006811115610be257610be1611357565b5b815250600560006001548152602001908152602001600020600082015181600001556020820151816001015560408201518160020160006101000a81548173ffffffffffffffffffffffffffffffffffffffff021916908373ffffffffffffffffffffffffffffffffffffffff1602179055506060820151816003015560808201518160040160006101000a81548173ffffffffffffffffffffffffffffffffffffffff021916908373ffffffffffffffffffffffffffffffffffffffff16021790555060a08201518160040160146101000a81548160ff02191690831515021790555060c08201518160040160156101000a81548160ff02191690836006811115610cf157610cf0611357565b5b0217905550905050610d016110dd565b505050565b600360009054906101000a900473ffffffffffffffffffffffffffffffffffffffff1673ffffffffffffffffffffffffffffffffffffffff163373ffffffffffffffffffffffffffffffffffffffff161480610daf5750600260009054906101000a900473ffffffffffffffffffffffffffffffffffffffff1673ffffffffffffffffffffffffffffffffffffffff163373ffffffffffffffffffffffffffffffffffffffff16145b610db857600080fd5b610dc3816004610371565b600360009054906101000a900473ffffffffffffffffffffffffffffffffffffffff1673ffffffffffffffffffffffffffffffffffffffff166108fc479081150290604051600060405180830381858888f19350505050158015610e2b573d6000803e3d6000fd5b506005600082815260200190815260200160002060020160009054906101000a900473ffffffffffffffffffffffffffffffffffffffff1673ffffffffffffffffffffffffffffffffffffffff166342842e0e30600260009054906101000a900473ffffffffffffffffffffffffffffffffffffffff1660056000868152602001908152602001600020600101546040518463ffffffff1660e01b8152600401610ed793929190611708565b600060405180830381600087803b158015610ef157600080fd5b505af1158015610f05573d6000803e3d6000fd5b5050505050565b60056020528060005260406000206000915090508060000154908060010154908060020160009054906101000a900473ffffffffffffffffffffffffffffffffffffffff16908060030154908060040160009054906101000a900473ffffffffffffffffffffffffffffffffffffffff16908060040160149054906101000a900460ff16908060040160159054906101000a900460ff16905087565b600080600190505b600154811161104c5782600560008381526020019081526020016000206001015414156110395760647f000000000000000000000000000000000000000000000000000000000000000060646110069190611894565b600560008481526020019081526020016000206003015461102791906115ea565b6110319190611673565b915050611088565b80806110449061146c565b915050610fb0565b506040517f08c379a000000000000000000000000000000000000000000000000000000000815260040161107f90611538565b60405180910390fd5b919050565b600260005414156110d3576040517f08c379a00000000000000000000000000000000000000000000000000000000081526004016110ca90611936565b60405180910390fd5b6002600081905550565b6001600081905550565b600073ffffffffffffffffffffffffffffffffffffffff82169050919050565b6000611112826110e7565b9050919050565b61112281611107565b82525050565b600060208201905061113d6000830184611119565b92915050565b600080fd5b6000819050919050565b61115b81611148565b811461116657600080fd5b50565b60008135905061117881611152565b92915050565b6007811061118b57600080fd5b50565b60008135905061119d8161117e565b92915050565b600080604083850312156111ba576111b9611143565b5b60006111c885828601611169565b92505060206111d98582860161118e565b9150509250929050565b6000602082840312156111f9576111f8611143565b5b600061120784828501611169565b91505092915050565b61121981611148565b82525050565b60006020820190506112346000830184611210565b92915050565b6000611245826110e7565b9050919050565b60006112578261123a565b9050919050565b6112678161124c565b811461127257600080fd5b50565b6000813590506112848161125e565b92915050565b6000806000606084860312156112a3576112a2611143565b5b60006112b186828701611275565b93505060206112c286828701611169565b92505060406112d386828701611169565b9150509250925092565b6000819050919050565b60006113026112fd6112f8846110e7565b6112dd565b6110e7565b9050919050565b6000611314826112e7565b9050919050565b600061132682611309565b9050919050565b6113368161131b565b82525050565b60008115159050919050565b6113518161133c565b82525050565b7f4e487b7100000000000000000000000000000000000000000000000000000000600052602160045260246000fd5b6007811061139757611396611357565b5b50565b60008190506113a882611386565b919050565b60006113b88261139a565b9050919050565b6113c8816113ad565b82525050565b600060e0820190506113e3600083018a611210565b6113f06020830189611210565b6113fd604083018861132d565b61140a6060830187611210565b6114176080830186611119565b61142460a0830185611348565b61143160c08301846113bf565b98975050505050505050565b7f4e487b7100000000000000000000000000000000000000000000000000000000600052601160045260246000fd5b600061147782611148565b91507fffffffffffffffffffffffffffffffffffffffffffffffffffffffffffffffff8214156114aa576114a961143d565b5b600182019050919050565b600082825260208201905092915050565b7f4974656d206e6f7420666f756e6420666f722074686520676976656e20746f6b60008201527f656e496400000000000000000000000000000000000000000000000000000000602082015250565b60006115226024836114b5565b915061152d826114c6565b604082019050919050565b6000602082019050818103600083015261155181611515565b9050919050565b7f6e6f7420656e6f75676820657468657220746f20636f766572206974656d207060008201527f7269636520616e64206d61726b65742066656500000000000000000000000000602082015250565b60006115b46033836114b5565b91506115bf82611558565b604082019050919050565b600060208201905081810360008301526115e3816115a7565b9050919050565b60006115f582611148565b915061160083611148565b9250817fffffffffffffffffffffffffffffffffffffffffffffffffffffffffffffffff04831182151516156116395761163861143d565b5b828202905092915050565b7f4e487b7100000000000000000000000000000000000000000000000000000000600052601260045260246000fd5b600061167e82611148565b915061168983611148565b92508261169957611698611644565b5b828204905092915050565b60006116af82611148565b91506116ba83611148565b9250828210156116cd576116cc61143d565b5b828203905092915050565b6116e18161123a565b82525050565b60006116f282611309565b9050919050565b611702816116e7565b82525050565b600060608201905061171d60008301866116d8565b61172a60208301856116f9565b6117376040830184611210565b949350505050565b600081905092915050565b50565b600061175a60008361173f565b91506117658261174a565b600082019050919050565b600061177b8261174d565b9150819050919050565b7f53656c6c6572207472616e73666572206661696c656400000000000000000000600082015250565b60006117bb6016836114b5565b91506117c682611785565b602082019050919050565b600060208201905081810360008301526117ea816117ae565b9050919050565b7f466565207472616e73666572206661696c656400000000000000000000000000600082015250565b60006118276013836114b5565b9150611832826117f1565b602082019050919050565b600060208201905081810360008301526118568161181a565b9050919050565b600060608201905061187260008301866116d8565b61187f60208301856116d8565b61188c6040830184611210565b949350505050565b600061189f82611148565b91506118aa83611148565b9250827fffffffffffffffffffffffffffffffffffffffffffffffffffffffffffffffff038211156118df576118de61143d565b5b828201905092915050565b7f5265656e7472616e637947756172643a207265656e7472616e742063616c6c00600082015250565b6000611920601f836114b5565b915061192b826118ea565b602082019050919050565b6000602082019050818103600083015261194f81611913565b905091905056fea264697066735822122001327bbfc2d6a48a29aa6fdd6d00592b33889d443ba1e9a0a6832d25a90db7a364736f6c63430008090033",
  "linkReferences": {},
  "deployedLinkReferences": {}
}