{
  "_format": "hh-sol-artifact-1",
  "contractName": "beeTokenEscrow",
  "sourceName": "contracts/beeTokenEscrow.sol",
  "abi": [
    {
      "inputs": [],
      "stateMutability": "nonpayable",
      "type": "constructor"
    },
    {
      "inputs": [],
      "name": "buyer",
      "outputs": [
        {
          "internalType": "address payable",
          "name": "",
          "type": "address"
        }
      ],
      "stateMutability": "view",
      "type": "function"
    },
    {
      "inputs": [
        {
          "internalType": "uint256",
          "name": "_tokenId",
          "type": "uint256"
        }
      ],
      "name": "cancelBeforeDelivery",
      "outputs": [],
      "stateMutability": "nonpayable",
      "type": "function"
    },
    {
      "inputs": [
        {
          "internalType": "uint256",
          "name": "_tokenId",
          "type": "uint256"
        }
      ],
      "name": "confirmDeliveryFinalizeSale",
      "outputs": [],
      "stateMutability": "nonpayable",
      "type": "function"
    },
    {
      "inputs": [
        {
          "internalType": "uint256",
          "name": "_tokenId",
          "type": "uint256"
        }
      ],
      "name": "depositETH",
      "outputs": [],
      "stateMutability": "payable",
      "type": "function"
    },
    {
      "inputs": [],
      "name": "feeAccount",
      "outputs": [
        {
          "internalType": "address payable",
          "name": "",
          "type": "address"
        }
      ],
      "stateMutability": "view",
      "type": "function"
    },
    {
      "inputs": [],
      "name": "feePercent",
      "outputs": [
        {
          "internalType": "uint256",
          "name": "",
          "type": "uint256"
        }
      ],
      "stateMutability": "view",
      "type": "function"
    },
    {
      "inputs": [
        {
          "internalType": "uint256",
          "name": "_tokenId",
          "type": "uint256"
        }
      ],
      "name": "getTotalPrice",
      "outputs": [
        {
          "internalType": "uint256",
          "name": "",
          "type": "uint256"
        }
      ],
      "stateMutability": "view",
      "type": "function"
    },
    {
      "inputs": [
        {
          "internalType": "uint256",
          "name": "_tokenId",
          "type": "uint256"
        }
      ],
      "name": "initiateDelivery",
      "outputs": [],
      "stateMutability": "nonpayable",
      "type": "function"
    },
    {
      "inputs": [],
      "name": "itemCount",
      "outputs": [
        {
          "internalType": "uint256",
          "name": "",
          "type": "uint256"
        }
      ],
      "stateMutability": "view",
      "type": "function"
    },
    {
      "inputs": [
        {
          "internalType": "uint256",
          "name": "",
          "type": "uint256"
        }
      ],
      "name": "items",
      "outputs": [
        {
          "internalType": "uint256",
          "name": "itemId",
          "type": "uint256"
        },
        {
          "internalType": "uint256",
          "name": "tokenId",
          "type": "uint256"
        },
        {
          "internalType": "contract IERC721",
          "name": "nft",
          "type": "address"
        },
        {
          "internalType": "uint256",
          "name": "price",
          "type": "uint256"
        },
        {
          "internalType": "address payable",
          "name": "seller",
          "type": "address"
        },
        {
          "internalType": "bool",
          "name": "sold",
          "type": "bool"
        },
        {
          "internalType": "enum beeTokenEscrow.ItemState",
          "name": "state",
          "type": "uint8"
        }
      ],
      "stateMutability": "view",
      "type": "function"
    },
    {
      "inputs": [
        {
          "internalType": "contract IERC721",
          "name": "_nft",
          "type": "address"
        },
        {
          "internalType": "uint256",
          "name": "_tokenId",
          "type": "uint256"
        },
        {
          "internalType": "uint256",
          "name": "_price",
          "type": "uint256"
        }
      ],
      "name": "listNFT",
      "outputs": [],
      "stateMutability": "nonpayable",
      "type": "function"
    },
    {
      "inputs": [
        {
          "internalType": "uint256",
          "name": "_tokenId",
          "type": "uint256"
        }
      ],
      "name": "reverseNftTransfer",
      "outputs": [],
      "stateMutability": "nonpayable",
      "type": "function"
    },
    {
      "inputs": [],
      "name": "seller",
      "outputs": [
        {
          "internalType": "address payable",
          "name": "",
          "type": "address"
        }
      ],
      "stateMutability": "view",
      "type": "function"
    },
    {
      "inputs": [
        {
          "internalType": "uint256",
          "name": "tokenId",
          "type": "uint256"
        },
        {
          "internalType": "enum beeTokenEscrow.ItemState",
          "name": "newState",
          "type": "uint8"
        }
      ],
      "name": "setItemStateByTokenId",
      "outputs": [],
      "stateMutability": "nonpayable",
      "type": "function"
    }
  ],
  "bytecode": "0x60c0604052600160a09081525034801561001857600080fd5b5060016000819055503373ffffffffffffffffffffffffffffffffffffffff1660808173ffffffffffffffffffffffffffffffffffffffff168152505060805160a051611830610088600039600081816107e50152610eae0152600081816104d8015261070601526118306000f3fe6080604052600436106100dd5760003560e01c80637fd6f15c1161007f578063ad05f1b411610059578063ad05f1b414610279578063bc3d1f5d146102a2578063bfb231d2146102cb578063ca7dd3751461030e576100dd565b80637fd6f15c146101fc57806399c8606114610227578063aa41403e14610250576100dd565b806365e17c9d116100bb57806365e17c9d146101525780636bfb0d011461017d5780637150d8ae146101a857806373a2b9b5146101d3576100dd565b806308551a53146100e25780634c91c6651461010d5780635358fbda14610136575b600080fd5b3480156100ee57600080fd5b506100f761034b565b6040516101049190610fa6565b60405180910390f35b34801561011957600080fd5b50610134600480360381019061012f9190611021565b610371565b005b610150600480360381019061014b9190611061565b610436565b005b34801561015e57600080fd5b506101676104d6565b6040516101749190610fa6565b60405180910390f35b34801561018957600080fd5b506101926104fa565b60405161019f919061109d565b60405180910390f35b3480156101b457600080fd5b506101bd610500565b6040516101ca9190610fa6565b60405180910390f35b3480156101df57600080fd5b506101fa60048036038101906101f59190611061565b610526565b005b34801561020857600080fd5b506102116107e3565b60405161021e919061109d565b60405180910390f35b34801561023357600080fd5b5061024e60048036038101906102499190611061565b610807565b005b34801561025c57600080fd5b5061027760048036038101906102729190611061565b61086f565b005b34801561028557600080fd5b506102a0600480360381019061029b9190611108565b61099e565b005b3480156102ae57600080fd5b506102c960048036038101906102c49190611061565b610c06565b005b3480156102d757600080fd5b506102f260048036038101906102ed9190611061565b610e0c565b604051610305979695949392919061124c565b60405180910390f35b34801561031a57600080fd5b5061033560048036038101906103309190611061565b610ea8565b604051610342919061109d565b60405180910390f35b600260009054906101000a900473ffffffffffffffffffffffffffffffffffffffff1681565b6000600190505b60015481116103f65782600460008381526020019081526020016000206001015414156103e357816004600083815260200190815260200160002060040160156101000a81548160ff021916908360068111156103d8576103d76111d5565b5b021790555050610432565b80806103ee906112ea565b915050610378565b506040517f08c379a0000000000000000000000000000000000000000000000000000000008152600401610429906113b6565b60405180910390fd5b5050565b33600360006101000a81548173ffffffffffffffffffffffffffffffffffffffff021916908373ffffffffffffffffffffffffffffffffffffffff160217905550600061048282610ea8565b9050803410156104c7576040517f08c379a00000000000000000000000000000000000000000000000000000000081526004016104be90611448565b60405180910390fd5b6104d2826003610371565b5050565b7f000000000000000000000000000000000000000000000000000000000000000081565b60015481565b600360009054906101000a900473ffffffffffffffffffffffffffffffffffffffff1681565b600360009054906101000a900473ffffffffffffffffffffffffffffffffffffffff1673ffffffffffffffffffffffffffffffffffffffff163373ffffffffffffffffffffffffffffffffffffffff161461058057600080fd5b6000600460008381526020019081526020016000209050600560068111156105ab576105aa6111d5565b5b8160040160159054906101000a900460ff1660068111156105cf576105ce6111d5565b5b1461060f576040517f08c379a0000000000000000000000000000000000000000000000000000000008152600401610606906114da565b60405180910390fd5b60068160040160156101000a81548160ff02191690836006811115610637576106366111d5565b5b0217905550600061064783610ea8565b90508160020160009054906101000a900473ffffffffffffffffffffffffffffffffffffffff1673ffffffffffffffffffffffffffffffffffffffff166342842e0e30600360009054906101000a900473ffffffffffffffffffffffffffffffffffffffff1685600101546040518463ffffffff1660e01b81526004016106d09392919061152a565b600060405180830381600087803b1580156106ea57600080fd5b505af11580156106fe573d6000803e3d6000fd5b5050505060007f000000000000000000000000000000000000000000000000000000000000000073ffffffffffffffffffffffffffffffffffffffff1683600301548361074b9190611561565b604051610757906115c6565b60006040518083038185875af1925050503d8060008114610794576040519150601f19603f3d011682016040523d82523d6000602084013e610799565b606091505b50509050806107dd576040517f08c379a00000000000000000000000000000000000000000000000000000000081526004016107d490611627565b60405180910390fd5b50505050565b7f000000000000000000000000000000000000000000000000000000000000000081565b600260009054906101000a900473ffffffffffffffffffffffffffffffffffffffff1673ffffffffffffffffffffffffffffffffffffffff163373ffffffffffffffffffffffffffffffffffffffff161461086157600080fd5b61086c816005610371565b50565b600260009054906101000a900473ffffffffffffffffffffffffffffffffffffffff1673ffffffffffffffffffffffffffffffffffffffff163373ffffffffffffffffffffffffffffffffffffffff16146108c957600080fd5b6004600082815260200190815260200160002060020160009054906101000a900473ffffffffffffffffffffffffffffffffffffffff1673ffffffffffffffffffffffffffffffffffffffff166342842e0e30600260009054906101000a900473ffffffffffffffffffffffffffffffffffffffff16846040518463ffffffff1660e01b815260040161095e9392919061152a565b600060405180830381600087803b15801561097857600080fd5b505af115801561098c573d6000803e3d6000fd5b5050505061099b816002610371565b50565b6109a6610f0b565b600160008154809291906109b9906112ea565b919050555033600260006101000a81548173ffffffffffffffffffffffffffffffffffffffff021916908373ffffffffffffffffffffffffffffffffffffffff1602179055508273ffffffffffffffffffffffffffffffffffffffff166323b872dd3330856040518463ffffffff1660e01b8152600401610a3c93929190611647565b600060405180830381600087803b158015610a5657600080fd5b505af1158015610a6a573d6000803e3d6000fd5b505050506040518060e0016040528060015481526020018381526020018473ffffffffffffffffffffffffffffffffffffffff1681526020018281526020013373ffffffffffffffffffffffffffffffffffffffff16815260200160001515815260200160016006811115610ae257610ae16111d5565b5b815250600460006001548152602001908152602001600020600082015181600001556020820151816001015560408201518160020160006101000a81548173ffffffffffffffffffffffffffffffffffffffff021916908373ffffffffffffffffffffffffffffffffffffffff1602179055506060820151816003015560808201518160040160006101000a81548173ffffffffffffffffffffffffffffffffffffffff021916908373ffffffffffffffffffffffffffffffffffffffff16021790555060a08201518160040160146101000a81548160ff02191690831515021790555060c08201518160040160156101000a81548160ff02191690836006811115610bf157610bf06111d5565b5b0217905550905050610c01610f5b565b505050565b600360009054906101000a900473ffffffffffffffffffffffffffffffffffffffff1673ffffffffffffffffffffffffffffffffffffffff163373ffffffffffffffffffffffffffffffffffffffff161480610caf5750600260009054906101000a900473ffffffffffffffffffffffffffffffffffffffff1673ffffffffffffffffffffffffffffffffffffffff163373ffffffffffffffffffffffffffffffffffffffff16145b610cb857600080fd5b610cc3816004610371565b600360009054906101000a900473ffffffffffffffffffffffffffffffffffffffff1673ffffffffffffffffffffffffffffffffffffffff166108fc479081150290604051600060405180830381858888f19350505050158015610d2b573d6000803e3d6000fd5b506004600082815260200190815260200160002060020160009054906101000a900473ffffffffffffffffffffffffffffffffffffffff1673ffffffffffffffffffffffffffffffffffffffff166342842e0e30600260009054906101000a900473ffffffffffffffffffffffffffffffffffffffff1660046000868152602001908152602001600020600101546040518463ffffffff1660e01b8152600401610dd79392919061152a565b600060405180830381600087803b158015610df157600080fd5b505af1158015610e05573d6000803e3d6000fd5b5050505050565b60046020528060005260406000206000915090508060000154908060010154908060020160009054906101000a900473ffffffffffffffffffffffffffffffffffffffff16908060030154908060040160009054906101000a900473ffffffffffffffffffffffffffffffffffffffff16908060040160149054906101000a900460ff16908060040160159054906101000a900460ff16905087565b600060647f00000000000000000000000000000000000000000000000000000000000000006064610ed9919061167e565b6004600085815260200190815260200160002060030154610efa91906116d4565b610f04919061175d565b9050919050565b60026000541415610f51576040517f08c379a0000000000000000000000000000000000000000000000000000000008152600401610f48906117da565b60405180910390fd5b6002600081905550565b6001600081905550565b600073ffffffffffffffffffffffffffffffffffffffff82169050919050565b6000610f9082610f65565b9050919050565b610fa081610f85565b82525050565b6000602082019050610fbb6000830184610f97565b92915050565b600080fd5b6000819050919050565b610fd981610fc6565b8114610fe457600080fd5b50565b600081359050610ff681610fd0565b92915050565b6007811061100957600080fd5b50565b60008135905061101b81610ffc565b92915050565b6000806040838503121561103857611037610fc1565b5b600061104685828601610fe7565b92505060206110578582860161100c565b9150509250929050565b60006020828403121561107757611076610fc1565b5b600061108584828501610fe7565b91505092915050565b61109781610fc6565b82525050565b60006020820190506110b2600083018461108e565b92915050565b60006110c382610f65565b9050919050565b60006110d5826110b8565b9050919050565b6110e5816110ca565b81146110f057600080fd5b50565b600081359050611102816110dc565b92915050565b60008060006060848603121561112157611120610fc1565b5b600061112f868287016110f3565b935050602061114086828701610fe7565b925050604061115186828701610fe7565b9150509250925092565b6000819050919050565b600061118061117b61117684610f65565b61115b565b610f65565b9050919050565b600061119282611165565b9050919050565b60006111a482611187565b9050919050565b6111b481611199565b82525050565b60008115159050919050565b6111cf816111ba565b82525050565b7f4e487b7100000000000000000000000000000000000000000000000000000000600052602160045260246000fd5b60078110611215576112146111d5565b5b50565b600081905061122682611204565b919050565b600061123682611218565b9050919050565b6112468161122b565b82525050565b600060e082019050611261600083018a61108e565b61126e602083018961108e565b61127b60408301886111ab565b611288606083018761108e565b6112956080830186610f97565b6112a260a08301856111c6565b6112af60c083018461123d565b98975050505050505050565b7f4e487b7100000000000000000000000000000000000000000000000000000000600052601160045260246000fd5b60006112f582610fc6565b91507fffffffffffffffffffffffffffffffffffffffffffffffffffffffffffffffff821415611328576113276112bb565b5b600182019050919050565b600082825260208201905092915050565b7f4974656d206e6f7420666f756e6420666f722074686520676976656e20746f6b60008201527f656e496400000000000000000000000000000000000000000000000000000000602082015250565b60006113a0602483611333565b91506113ab82611344565b604082019050919050565b600060208201905081810360008301526113cf81611393565b9050919050565b7f6e6f7420656e6f75676820657468657220746f20636f766572206974656d207060008201527f7269636520616e64206d61726b65742066656500000000000000000000000000602082015250565b6000611432603383611333565b915061143d826113d6565b604082019050919050565b6000602082019050818103600083015261146181611425565b9050919050565b7f4974656d207374617465206d7573742062652044656c6976657279496e69746960008201527f6174656400000000000000000000000000000000000000000000000000000000602082015250565b60006114c4602483611333565b91506114cf82611468565b604082019050919050565b600060208201905081810360008301526114f3816114b7565b9050919050565b611503816110b8565b82525050565b600061151482611187565b9050919050565b61152481611509565b82525050565b600060608201905061153f60008301866114fa565b61154c602083018561151b565b611559604083018461108e565b949350505050565b600061156c82610fc6565b915061157783610fc6565b92508282101561158a576115896112bb565b5b828203905092915050565b600081905092915050565b50565b60006115b0600083611595565b91506115bb826115a0565b600082019050919050565b60006115d1826115a3565b9150819050919050565b7f4661696c656420746f2073656e64206d61726b65742066656500000000000000600082015250565b6000611611601983611333565b915061161c826115db565b602082019050919050565b6000602082019050818103600083015261164081611604565b9050919050565b600060608201905061165c60008301866114fa565b61166960208301856114fa565b611676604083018461108e565b949350505050565b600061168982610fc6565b915061169483610fc6565b9250827fffffffffffffffffffffffffffffffffffffffffffffffffffffffffffffffff038211156116c9576116c86112bb565b5b828201905092915050565b60006116df82610fc6565b91506116ea83610fc6565b9250817fffffffffffffffffffffffffffffffffffffffffffffffffffffffffffffffff0483118215151615611723576117226112bb565b5b828202905092915050565b7f4e487b7100000000000000000000000000000000000000000000000000000000600052601260045260246000fd5b600061176882610fc6565b915061177383610fc6565b9250826117835761178261172e565b5b828204905092915050565b7f5265656e7472616e637947756172643a207265656e7472616e742063616c6c00600082015250565b60006117c4601f83611333565b91506117cf8261178e565b602082019050919050565b600060208201905081810360008301526117f3816117b7565b905091905056fea2646970667358221220eaaba3ce86a83b6d914c64e8c6d5b7cbc1c9fd5c06cee30da80f7b4c21b4e27864736f6c63430008090033",
  "linkReferences": {},
  "deployedLinkReferences": {}
}