{
  "_format": "hh-sol-artifact-1",
  "contractName": "nft_escrow",
  "sourceName": "contracts/nft_escrow.sol",
  "abi": [
    {
      "inputs": [],
      "stateMutability": "nonpayable",
      "type": "constructor"
    },
    {
      "inputs": [],
      "name": "buyerAddress",
      "outputs": [
        {
          "internalType": "address payable",
          "name": "",
          "type": "address"
        }
      ],
      "stateMutability": "view",
      "type": "function"
    },
    {
      "inputs": [],
      "name": "cancelAtNFT",
      "outputs": [],
      "stateMutability": "nonpayable",
      "type": "function"
    },
    {
      "inputs": [
        {
          "internalType": "bool",
          "name": "_state",
          "type": "bool"
        }
      ],
      "name": "cancelBeforeDelivery",
      "outputs": [],
      "stateMutability": "payable",
      "type": "function"
    },
    {
      "inputs": [],
      "name": "confirmDelivery",
      "outputs": [],
      "stateMutability": "payable",
      "type": "function"
    },
    {
      "inputs": [],
      "name": "contractState",
      "outputs": [
        {
          "internalType": "enum nft_escrow.ContractState",
          "name": "",
          "type": "uint8"
        }
      ],
      "stateMutability": "view",
      "type": "function"
    },
    {
      "inputs": [],
      "name": "depositETH",
      "outputs": [],
      "stateMutability": "payable",
      "type": "function"
    },
    {
      "inputs": [
        {
          "internalType": "address",
          "name": "_NFTAddress",
          "type": "address"
        },
        {
          "internalType": "uint256",
          "name": "_TokenID",
          "type": "uint256"
        }
      ],
      "name": "depositNFT",
      "outputs": [],
      "stateMutability": "nonpayable",
      "type": "function"
    },
    {
      "inputs": [],
      "name": "getBalance",
      "outputs": [
        {
          "internalType": "uint256",
          "name": "balance",
          "type": "uint256"
        }
      ],
      "stateMutability": "view",
      "type": "function"
    },
    {
      "inputs": [],
      "name": "initiateDelivery",
      "outputs": [],
      "stateMutability": "nonpayable",
      "type": "function"
    },
    {
      "inputs": [],
      "name": "itemCount",
      "outputs": [
        {
          "internalType": "uint256",
          "name": "",
          "type": "uint256"
        }
      ],
      "stateMutability": "view",
      "type": "function"
    },
    {
      "inputs": [
        {
          "internalType": "uint256",
          "name": "",
          "type": "uint256"
        }
      ],
      "name": "items",
      "outputs": [
        {
          "internalType": "uint256",
          "name": "itemId",
          "type": "uint256"
        },
        {
          "internalType": "address",
          "name": "nft",
          "type": "address"
        },
        {
          "internalType": "uint256",
          "name": "tokenID",
          "type": "uint256"
        },
        {
          "internalType": "address payable",
          "name": "seller",
          "type": "address"
        },
        {
          "internalType": "bool",
          "name": "sold",
          "type": "bool"
        }
      ],
      "stateMutability": "view",
      "type": "function"
    },
    {
      "inputs": [],
      "name": "nftAddress",
      "outputs": [
        {
          "internalType": "address",
          "name": "",
          "type": "address"
        }
      ],
      "stateMutability": "view",
      "type": "function"
    },
    {
      "inputs": [
        {
          "internalType": "address",
          "name": "operator",
          "type": "address"
        },
        {
          "internalType": "address",
          "name": "from",
          "type": "address"
        },
        {
          "internalType": "uint256",
          "name": "tokenId",
          "type": "uint256"
        },
        {
          "internalType": "bytes",
          "name": "data",
          "type": "bytes"
        }
      ],
      "name": "onERC721Received",
      "outputs": [
        {
          "internalType": "bytes4",
          "name": "",
          "type": "bytes4"
        }
      ],
      "stateMutability": "nonpayable",
      "type": "function"
    },
    {
      "inputs": [],
      "name": "sellerAddress",
      "outputs": [
        {
          "internalType": "address payable",
          "name": "",
          "type": "address"
        }
      ],
      "stateMutability": "view",
      "type": "function"
    }
  ],
  "bytecode": "0x60806040526000600460006101000a81548160ff0219169083151502179055506000600460016101000a81548160ff02191690831515021790555034801561004657600080fd5b50336000806101000a81548173ffffffffffffffffffffffffffffffffffffffff021916908373ffffffffffffffffffffffffffffffffffffffff1602179055506000600460026101000a81548160ff021916908360068111156100ad576100ac6100b7565b5b02179055506100e6565b7f4e487b7100000000000000000000000000000000000000000000000000000000600052602160045260246000fd5b6114d0806100f56000396000f3fe6080604052600436106100dd5760003560e01c80635e10177b1161007f5780639b5b9b18116100595780639b5b9b181461025e578063a1ee418114610287578063bfb231d21461029e578063f6326fb3146102df576100dd565b80635e10177b146101fe5780636bfb0d011461020857806385209ee014610233576100dd565b8063342901a7116100bb578063342901a7146101615780633d9b2ae61461017d57806344834aca146101a85780635bf8633a146101d3576100dd565b806312065fe0146100e2578063150b7a021461010d5780632f9fa7f61461014a575b600080fd5b3480156100ee57600080fd5b506100f76102e9565b6040516101049190610f37565b60405180910390f35b34801561011957600080fd5b50610134600480360381019061012f919061104b565b6102f1565b604051610141919061110e565b60405180910390f35b34801561015657600080fd5b5061015f610306565b005b61017b60048036038101906101769190611161565b610460565b005b34801561018957600080fd5b50610192610765565b60405161019f91906111af565b60405180910390f35b3480156101b457600080fd5b506101bd610789565b6040516101ca91906111af565b60405180910390f35b3480156101df57600080fd5b506101e86107af565b6040516101f591906111d9565b60405180910390f35b6102066107d5565b005b34801561021457600080fd5b5061021d6109ba565b60405161022a9190610f37565b60405180910390f35b34801561023f57600080fd5b506102486109c0565b604051610255919061126b565b60405180910390f35b34801561026a57600080fd5b5061028560048036038101906102809190611286565b6109d3565b005b34801561029357600080fd5b5061029c610ce5565b005b3480156102aa57600080fd5b506102c560048036038101906102c091906112c6565b610deb565b6040516102d6959493929190611302565b60405180910390f35b6102e7610e6e565b005b600047905090565b600063150b7a0260e01b905095945050505050565b600180600681111561031b5761031a6111f4565b5b600460029054906101000a900460ff16600681111561033d5761033c6111f4565b5b1461034757600080fd5b60008054906101000a900473ffffffffffffffffffffffffffffffffffffffff1673ffffffffffffffffffffffffffffffffffffffff163373ffffffffffffffffffffffffffffffffffffffff161461039f57600080fd5b600260009054906101000a900473ffffffffffffffffffffffffffffffffffffffff1673ffffffffffffffffffffffffffffffffffffffff166342842e0e30336003546040518463ffffffff1660e01b815260040161040093929190611355565b600060405180830381600087803b15801561041a57600080fd5b505af115801561042e573d6000803e3d6000fd5b505050506002600460026101000a81548160ff02191690836006811115610458576104576111f4565b5b021790555050565b6003806006811115610475576104746111f4565b5b600460029054906101000a900460ff166006811115610497576104966111f4565b5b146104a157600080fd5b600160009054906101000a900473ffffffffffffffffffffffffffffffffffffffff1673ffffffffffffffffffffffffffffffffffffffff163373ffffffffffffffffffffffffffffffffffffffff161480610548575060008054906101000a900473ffffffffffffffffffffffffffffffffffffffff1673ffffffffffffffffffffffffffffffffffffffff163373ffffffffffffffffffffffffffffffffffffffff16145b61055157600080fd5b60008054906101000a900473ffffffffffffffffffffffffffffffffffffffff1673ffffffffffffffffffffffffffffffffffffffff163373ffffffffffffffffffffffffffffffffffffffff1614156105c45781600460016101000a81548160ff0219169083151502179055506105df565b81600460006101000a81548160ff0219169083151502179055505b60011515600460019054906101000a900460ff161515148015610615575060011515600460009054906101000a900460ff161515145b1561076157600260009054906101000a900473ffffffffffffffffffffffffffffffffffffffff1673ffffffffffffffffffffffffffffffffffffffff166342842e0e3060008054906101000a900473ffffffffffffffffffffffffffffffffffffffff166003546040518463ffffffff1660e01b815260040161069b939291906113eb565b600060405180830381600087803b1580156106b557600080fd5b505af11580156106c9573d6000803e3d6000fd5b50505050600160009054906101000a900473ffffffffffffffffffffffffffffffffffffffff1673ffffffffffffffffffffffffffffffffffffffff166108fc479081150290604051600060405180830381858888f19350505050158015610735573d6000803e3d6000fd5b5060048060026101000a81548160ff0219169083600681111561075b5761075a6111f4565b5b02179055505b5050565b60008054906101000a900473ffffffffffffffffffffffffffffffffffffffff1681565b600160009054906101000a900473ffffffffffffffffffffffffffffffffffffffff1681565b600260009054906101000a900473ffffffffffffffffffffffffffffffffffffffff1681565b60058060068111156107ea576107e96111f4565b5b600460029054906101000a900460ff16600681111561080c5761080b6111f4565b5b1461081657600080fd5b600160009054906101000a900473ffffffffffffffffffffffffffffffffffffffff1673ffffffffffffffffffffffffffffffffffffffff163373ffffffffffffffffffffffffffffffffffffffff161461087057600080fd5b600260009054906101000a900473ffffffffffffffffffffffffffffffffffffffff1673ffffffffffffffffffffffffffffffffffffffff166342842e0e30600160009054906101000a900473ffffffffffffffffffffffffffffffffffffffff166003546040518463ffffffff1660e01b81526004016108f3939291906113eb565b600060405180830381600087803b15801561090d57600080fd5b505af1158015610921573d6000803e3d6000fd5b5050505060008054906101000a900473ffffffffffffffffffffffffffffffffffffffff1673ffffffffffffffffffffffffffffffffffffffff166108fc479081150290604051600060405180830381858888f1935050505015801561098b573d6000803e3d6000fd5b506006600460026101000a81548160ff021916908360068111156109b2576109b16111f4565b5b021790555050565b60055481565b600460029054906101000a900460ff1681565b60008060068111156109e8576109e76111f4565b5b600460029054906101000a900460ff166006811115610a0a57610a096111f4565b5b14610a1457600080fd5b60008054906101000a900473ffffffffffffffffffffffffffffffffffffffff1673ffffffffffffffffffffffffffffffffffffffff163373ffffffffffffffffffffffffffffffffffffffff1614610a6c57600080fd5b82600260006101000a81548173ffffffffffffffffffffffffffffffffffffffff021916908373ffffffffffffffffffffffffffffffffffffffff1602179055508160038190555060056000815480929190610ac790611451565b9190505550600260009054906101000a900473ffffffffffffffffffffffffffffffffffffffff1673ffffffffffffffffffffffffffffffffffffffff166342842e0e33306003546040518463ffffffff1660e01b8152600401610b2d93929190611355565b600060405180830381600087803b158015610b4757600080fd5b505af1158015610b5b573d6000803e3d6000fd5b505050506040518060a001604052806005548152602001600260009054906101000a900473ffffffffffffffffffffffffffffffffffffffff1673ffffffffffffffffffffffffffffffffffffffff16815260200160035481526020013373ffffffffffffffffffffffffffffffffffffffff168152602001600015158152506006600060055481526020019081526020016000206000820151816000015560208201518160010160006101000a81548173ffffffffffffffffffffffffffffffffffffffff021916908373ffffffffffffffffffffffffffffffffffffffff1602179055506040820151816002015560608201518160030160006101000a81548173ffffffffffffffffffffffffffffffffffffffff021916908373ffffffffffffffffffffffffffffffffffffffff16021790555060808201518160030160146101000a81548160ff0219169083151502179055509050506001600460026101000a81548160ff02191690836006811115610cdb57610cda6111f4565b5b0217905550505050565b6003806006811115610cfa57610cf96111f4565b5b600460029054906101000a900460ff166006811115610d1c57610d1b6111f4565b5b14610d2657600080fd5b60008054906101000a900473ffffffffffffffffffffffffffffffffffffffff1673ffffffffffffffffffffffffffffffffffffffff163373ffffffffffffffffffffffffffffffffffffffff1614610d7e57600080fd5b60001515600460009054906101000a900460ff161515148015610db4575060001515600460019054906101000a900460ff161515145b610dbd57600080fd5b6005600460026101000a81548160ff02191690836006811115610de357610de26111f4565b5b021790555050565b60066020528060005260406000206000915090508060000154908060010160009054906101000a900473ffffffffffffffffffffffffffffffffffffffff16908060020154908060030160009054906101000a900473ffffffffffffffffffffffffffffffffffffffff16908060030160149054906101000a900460ff16905085565b6001806006811115610e8357610e826111f4565b5b600460029054906101000a900460ff166006811115610ea557610ea46111f4565b5b14610eaf57600080fd5b33600160006101000a81548173ffffffffffffffffffffffffffffffffffffffff021916908373ffffffffffffffffffffffffffffffffffffffff1602179055506003600460026101000a81548160ff02191690836006811115610f1657610f156111f4565b5b021790555050565b6000819050919050565b610f3181610f1e565b82525050565b6000602082019050610f4c6000830184610f28565b92915050565b600080fd5b600080fd5b600073ffffffffffffffffffffffffffffffffffffffff82169050919050565b6000610f8782610f5c565b9050919050565b610f9781610f7c565b8114610fa257600080fd5b50565b600081359050610fb481610f8e565b92915050565b610fc381610f1e565b8114610fce57600080fd5b50565b600081359050610fe081610fba565b92915050565b600080fd5b600080fd5b600080fd5b60008083601f84011261100b5761100a610fe6565b5b8235905067ffffffffffffffff81111561102857611027610feb565b5b60208301915083600182028301111561104457611043610ff0565b5b9250929050565b60008060008060006080868803121561106757611066610f52565b5b600061107588828901610fa5565b955050602061108688828901610fa5565b945050604061109788828901610fd1565b935050606086013567ffffffffffffffff8111156110b8576110b7610f57565b5b6110c488828901610ff5565b92509250509295509295909350565b60007fffffffff0000000000000000000000000000000000000000000000000000000082169050919050565b611108816110d3565b82525050565b600060208201905061112360008301846110ff565b92915050565b60008115159050919050565b61113e81611129565b811461114957600080fd5b50565b60008135905061115b81611135565b92915050565b60006020828403121561117757611176610f52565b5b60006111858482850161114c565b91505092915050565b600061119982610f5c565b9050919050565b6111a98161118e565b82525050565b60006020820190506111c460008301846111a0565b92915050565b6111d381610f7c565b82525050565b60006020820190506111ee60008301846111ca565b92915050565b7f4e487b7100000000000000000000000000000000000000000000000000000000600052602160045260246000fd5b60078110611234576112336111f4565b5b50565b600081905061124582611223565b919050565b600061125582611237565b9050919050565b6112658161124a565b82525050565b6000602082019050611280600083018461125c565b92915050565b6000806040838503121561129d5761129c610f52565b5b60006112ab85828601610fa5565b92505060206112bc85828601610fd1565b9150509250929050565b6000602082840312156112dc576112db610f52565b5b60006112ea84828501610fd1565b91505092915050565b6112fc81611129565b82525050565b600060a0820190506113176000830188610f28565b61132460208301876111ca565b6113316040830186610f28565b61133e60608301856111a0565b61134b60808301846112f3565b9695505050505050565b600060608201905061136a60008301866111ca565b61137760208301856111ca565b6113846040830184610f28565b949350505050565b6000819050919050565b60006113b16113ac6113a784610f5c565b61138c565b610f5c565b9050919050565b60006113c382611396565b9050919050565b60006113d5826113b8565b9050919050565b6113e5816113ca565b82525050565b600060608201905061140060008301866111ca565b61140d60208301856113dc565b61141a6040830184610f28565b949350505050565b7f4e487b7100000000000000000000000000000000000000000000000000000000600052601160045260246000fd5b600061145c82610f1e565b91507fffffffffffffffffffffffffffffffffffffffffffffffffffffffffffffffff82141561148f5761148e611422565b5b60018201905091905056fea26469706673582212203dd01bf1b2a81c0958b06389fde20816558da8b3a04349027882798bb07c3b3664736f6c63430008090033",
  "linkReferences": {},
  "deployedLinkReferences": {}
}