{
  "_format": "hh-sol-artifact-1",
  "contractName": "PhygitalEscrow",
  "sourceName": "contracts/PhygitalEscrow.sol",
  "abi": [
    {
      "inputs": [],
      "stateMutability": "nonpayable",
      "type": "constructor"
    },
    {
      "anonymous": false,
      "inputs": [
        {
          "indexed": false,
          "internalType": "uint256",
          "name": "itemId",
          "type": "uint256"
        },
        {
          "indexed": true,
          "internalType": "address",
          "name": "nft",
          "type": "address"
        },
        {
          "indexed": false,
          "internalType": "uint256",
          "name": "tokenId",
          "type": "uint256"
        },
        {
          "indexed": false,
          "internalType": "uint256",
          "name": "price",
          "type": "uint256"
        },
        {
          "indexed": true,
          "internalType": "address",
          "name": "seller",
          "type": "address"
        },
        {
          "indexed": true,
          "internalType": "address",
          "name": "buyer",
          "type": "address"
        }
      ],
      "name": "Bought",
      "type": "event"
    },
    {
      "anonymous": false,
      "inputs": [
        {
          "indexed": false,
          "internalType": "uint256",
          "name": "itemId",
          "type": "uint256"
        },
        {
          "indexed": true,
          "internalType": "address",
          "name": "nft",
          "type": "address"
        },
        {
          "indexed": false,
          "internalType": "uint256",
          "name": "tokenId",
          "type": "uint256"
        },
        {
          "indexed": false,
          "internalType": "uint256",
          "name": "price",
          "type": "uint256"
        },
        {
          "indexed": true,
          "internalType": "address",
          "name": "seller",
          "type": "address"
        }
      ],
      "name": "Offered",
      "type": "event"
    },
    {
      "inputs": [
        {
          "internalType": "contract IERC721",
          "name": "_nft",
          "type": "address"
        },
        {
          "internalType": "uint256",
          "name": "_tokenId",
          "type": "uint256"
        },
        {
          "internalType": "uint256",
          "name": "_price",
          "type": "uint256"
        }
      ],
      "name": "ListNFT",
      "outputs": [],
      "stateMutability": "nonpayable",
      "type": "function"
    },
    {
      "inputs": [],
      "name": "buyer",
      "outputs": [
        {
          "internalType": "address payable",
          "name": "",
          "type": "address"
        }
      ],
      "stateMutability": "view",
      "type": "function"
    },
    {
      "inputs": [
        {
          "internalType": "bool",
          "name": "_state",
          "type": "bool"
        }
      ],
      "name": "cancelBeforeDelivery",
      "outputs": [],
      "stateMutability": "payable",
      "type": "function"
    },
    {
      "inputs": [],
      "name": "confirmDelivery",
      "outputs": [],
      "stateMutability": "payable",
      "type": "function"
    },
    {
      "inputs": [],
      "name": "contractState",
      "outputs": [
        {
          "internalType": "enum PhygitalEscrow.ContractState",
          "name": "",
          "type": "uint8"
        }
      ],
      "stateMutability": "view",
      "type": "function"
    },
    {
      "inputs": [],
      "name": "depositETH",
      "outputs": [],
      "stateMutability": "payable",
      "type": "function"
    },
    {
      "inputs": [],
      "name": "feeAccount",
      "outputs": [
        {
          "internalType": "address payable",
          "name": "",
          "type": "address"
        }
      ],
      "stateMutability": "view",
      "type": "function"
    },
    {
      "inputs": [],
      "name": "feePercent",
      "outputs": [
        {
          "internalType": "uint256",
          "name": "",
          "type": "uint256"
        }
      ],
      "stateMutability": "view",
      "type": "function"
    },
    {
      "inputs": [
        {
          "internalType": "uint256",
          "name": "_itemId",
          "type": "uint256"
        }
      ],
      "name": "getTotalPrice",
      "outputs": [
        {
          "internalType": "uint256",
          "name": "",
          "type": "uint256"
        }
      ],
      "stateMutability": "view",
      "type": "function"
    },
    {
      "inputs": [],
      "name": "initiateDelivery",
      "outputs": [],
      "stateMutability": "nonpayable",
      "type": "function"
    },
    {
      "inputs": [],
      "name": "itemCount",
      "outputs": [
        {
          "internalType": "uint256",
          "name": "",
          "type": "uint256"
        }
      ],
      "stateMutability": "view",
      "type": "function"
    },
    {
      "inputs": [
        {
          "internalType": "uint256",
          "name": "",
          "type": "uint256"
        }
      ],
      "name": "items",
      "outputs": [
        {
          "internalType": "uint256",
          "name": "itemId",
          "type": "uint256"
        },
        {
          "internalType": "contract IERC721",
          "name": "nft",
          "type": "address"
        },
        {
          "internalType": "uint256",
          "name": "tokenId",
          "type": "uint256"
        },
        {
          "internalType": "uint256",
          "name": "price",
          "type": "uint256"
        },
        {
          "internalType": "address payable",
          "name": "seller",
          "type": "address"
        },
        {
          "internalType": "bool",
          "name": "sold",
          "type": "bool"
        }
      ],
      "stateMutability": "view",
      "type": "function"
    },
    {
      "inputs": [],
      "name": "reverseNftTransfer",
      "outputs": [],
      "stateMutability": "nonpayable",
      "type": "function"
    },
    {
      "inputs": [],
      "name": "seller",
      "outputs": [
        {
          "internalType": "address payable",
          "name": "",
          "type": "address"
        }
      ],
      "stateMutability": "view",
      "type": "function"
    }
  ],
  "bytecode": "0x60c0604052600560a0908152506000600460146101000a81548160ff0219169083151502179055506000600460156101000a81548160ff02191690831515021790555034801561004e57600080fd5b5060016000819055503373ffffffffffffffffffffffffffffffffffffffff1660808173ffffffffffffffffffffffffffffffffffffffff16815250506000600660006101000a81548160ff021916908360068111156100b1576100b06100bb565b5b02179055506100ea565b7f4e487b7100000000000000000000000000000000000000000000000000000000600052602160045260246000fd5b60805160a0516116f661011660003960008181610cf00152610ebc0152600061096001526116f66000f3fe6080604052600436106100dd5760003560e01c80637150d8ae1161007f578063a1ee418111610059578063a1ee41811461024a578063bfb231d214610261578063ca7dd375146102a3578063f6326fb3146102e0576100dd565b80637150d8ae146101c95780637fd6f15c146101f457806385209ee01461021f576100dd565b80635e10177b116100bb5780635e10177b1461014057806365e17c9d1461014a5780636bfb0d01146101755780636cd52e2a146101a0576100dd565b806308551a53146100e2578063342901a71461010d57806339a3798614610129575b600080fd5b3480156100ee57600080fd5b506100f76102ea565b6040516101049190611064565b60405180910390f35b610127600480360381019061012291906110bc565b610310565b005b34801561013557600080fd5b5061013e61061c565b005b610148610778565b005b34801561015657600080fd5b5061015f61095e565b60405161016c9190611064565b60405180910390f35b34801561018157600080fd5b5061018a610982565b6040516101979190611102565b60405180910390f35b3480156101ac57600080fd5b506101c760048036038101906101c29190611199565b610988565b005b3480156101d557600080fd5b506101de610cc8565b6040516101eb9190611064565b60405180910390f35b34801561020057600080fd5b50610209610cee565b6040516102169190611102565b60405180910390f35b34801561022b57600080fd5b50610234610d12565b6040516102419190611263565b60405180910390f35b34801561025657600080fd5b5061025f610d25565b005b34801561026d57600080fd5b506102886004803603810190610283919061127e565b610e2d565b60405161029a96959493929190611319565b60405180910390f35b3480156102af57600080fd5b506102ca60048036038101906102c5919061127e565b610eb6565b6040516102d79190611102565b60405180910390f35b6102e8610f19565b005b600260009054906101000a900473ffffffffffffffffffffffffffffffffffffffff1681565b6003806006811115610325576103246111ec565b5b600660009054906101000a900460ff166006811115610347576103466111ec565b5b1461035157600080fd5b600360009054906101000a900473ffffffffffffffffffffffffffffffffffffffff1673ffffffffffffffffffffffffffffffffffffffff163373ffffffffffffffffffffffffffffffffffffffff1614806103fa5750600260009054906101000a900473ffffffffffffffffffffffffffffffffffffffff1673ffffffffffffffffffffffffffffffffffffffff163373ffffffffffffffffffffffffffffffffffffffff16145b61040357600080fd5b600260009054906101000a900473ffffffffffffffffffffffffffffffffffffffff1673ffffffffffffffffffffffffffffffffffffffff163373ffffffffffffffffffffffffffffffffffffffff1614156104785781600460156101000a81548160ff021916908315150217905550610493565b81600460146101000a81548160ff0219169083151502179055505b60011515600460159054906101000a900460ff1615151480156104c9575060011515600460149054906101000a900460ff161515145b1561061857600460009054906101000a900473ffffffffffffffffffffffffffffffffffffffff1673ffffffffffffffffffffffffffffffffffffffff166342842e0e30600260009054906101000a900473ffffffffffffffffffffffffffffffffffffffff166005546040518463ffffffff1660e01b8152600401610551939291906113aa565b600060405180830381600087803b15801561056b57600080fd5b505af115801561057f573d6000803e3d6000fd5b50505050600360009054906101000a900473ffffffffffffffffffffffffffffffffffffffff1673ffffffffffffffffffffffffffffffffffffffff166108fc479081150290604051600060405180830381858888f193505050501580156105eb573d6000803e3d6000fd5b506004600660006101000a81548160ff02191690836006811115610612576106116111ec565b5b02179055505b5050565b6001806006811115610631576106306111ec565b5b600660009054906101000a900460ff166006811115610653576106526111ec565b5b1461065d57600080fd5b600260009054906101000a900473ffffffffffffffffffffffffffffffffffffffff1673ffffffffffffffffffffffffffffffffffffffff163373ffffffffffffffffffffffffffffffffffffffff16146106b757600080fd5b600460009054906101000a900473ffffffffffffffffffffffffffffffffffffffff1673ffffffffffffffffffffffffffffffffffffffff166342842e0e30336005546040518463ffffffff1660e01b8152600401610718939291906113e1565b600060405180830381600087803b15801561073257600080fd5b505af1158015610746573d6000803e3d6000fd5b505050506002600660006101000a81548160ff021916908360068111156107705761076f6111ec565b5b021790555050565b600580600681111561078d5761078c6111ec565b5b600660009054906101000a900460ff1660068111156107af576107ae6111ec565b5b146107b957600080fd5b600360009054906101000a900473ffffffffffffffffffffffffffffffffffffffff1673ffffffffffffffffffffffffffffffffffffffff163373ffffffffffffffffffffffffffffffffffffffff161461081357600080fd5b600460009054906101000a900473ffffffffffffffffffffffffffffffffffffffff1673ffffffffffffffffffffffffffffffffffffffff166342842e0e30600360009054906101000a900473ffffffffffffffffffffffffffffffffffffffff166005546040518463ffffffff1660e01b8152600401610896939291906113aa565b600060405180830381600087803b1580156108b057600080fd5b505af11580156108c4573d6000803e3d6000fd5b50505050600260009054906101000a900473ffffffffffffffffffffffffffffffffffffffff1673ffffffffffffffffffffffffffffffffffffffff166108fc479081150290604051600060405180830381858888f19350505050158015610930573d6000803e3d6000fd5b5060068060006101000a81548160ff02191690836006811115610956576109556111ec565b5b021790555050565b7f000000000000000000000000000000000000000000000000000000000000000081565b60015481565b610990610fc9565b600081116109d3576040517f08c379a00000000000000000000000000000000000000000000000000000000081526004016109ca90611475565b60405180910390fd5b600160008154809291906109e6906114c4565b91905055508160058190555082600460006101000a81548173ffffffffffffffffffffffffffffffffffffffff021916908373ffffffffffffffffffffffffffffffffffffffff16021790555033600260006101000a81548173ffffffffffffffffffffffffffffffffffffffff021916908373ffffffffffffffffffffffffffffffffffffffff1602179055508273ffffffffffffffffffffffffffffffffffffffff166323b872dd3330856040518463ffffffff1660e01b8152600401610ab1939291906113e1565b600060405180830381600087803b158015610acb57600080fd5b505af1158015610adf573d6000803e3d6000fd5b505050506040518060c0016040528060015481526020018473ffffffffffffffffffffffffffffffffffffffff1681526020018381526020018281526020013373ffffffffffffffffffffffffffffffffffffffff168152602001600015158152506007600060015481526020019081526020016000206000820151816000015560208201518160010160006101000a81548173ffffffffffffffffffffffffffffffffffffffff021916908373ffffffffffffffffffffffffffffffffffffffff160217905550604082015181600201556060820151816003015560808201518160040160006101000a81548173ffffffffffffffffffffffffffffffffffffffff021916908373ffffffffffffffffffffffffffffffffffffffff16021790555060a08201518160040160146101000a81548160ff0219169083151502179055509050503373ffffffffffffffffffffffffffffffffffffffff168373ffffffffffffffffffffffffffffffffffffffff167f655a0cf9c8db81512be9a76dc1c5ae5380b8816ce6ad659cd61b715e2999d59a6001548585604051610c889392919061150d565b60405180910390a36001600660006101000a81548160ff02191690836006811115610cb657610cb56111ec565b5b0217905550610cc3611019565b505050565b600360009054906101000a900473ffffffffffffffffffffffffffffffffffffffff1681565b7f000000000000000000000000000000000000000000000000000000000000000081565b600660009054906101000a900460ff1681565b6003806006811115610d3a57610d396111ec565b5b600660009054906101000a900460ff166006811115610d5c57610d5b6111ec565b5b14610d6657600080fd5b600260009054906101000a900473ffffffffffffffffffffffffffffffffffffffff1673ffffffffffffffffffffffffffffffffffffffff163373ffffffffffffffffffffffffffffffffffffffff1614610dc057600080fd5b60001515600460149054906101000a900460ff161515148015610df6575060001515600460159054906101000a900460ff161515145b610dff57600080fd5b6005600660006101000a81548160ff02191690836006811115610e2557610e246111ec565b5b021790555050565b60076020528060005260406000206000915090508060000154908060010160009054906101000a900473ffffffffffffffffffffffffffffffffffffffff16908060020154908060030154908060040160009054906101000a900473ffffffffffffffffffffffffffffffffffffffff16908060040160149054906101000a900460ff16905086565b600060647f00000000000000000000000000000000000000000000000000000000000000006064610ee79190611544565b6007600085815260200190815260200160002060030154610f08919061159a565b610f129190611623565b9050919050565b6001806006811115610f2e57610f2d6111ec565b5b600660009054906101000a900460ff166006811115610f5057610f4f6111ec565b5b14610f5a57600080fd5b33600360006101000a81548173ffffffffffffffffffffffffffffffffffffffff021916908373ffffffffffffffffffffffffffffffffffffffff1602179055506003600660006101000a81548160ff02191690836006811115610fc157610fc06111ec565b5b021790555050565b6002600054141561100f576040517f08c379a0000000000000000000000000000000000000000000000000000000008152600401611006906116a0565b60405180910390fd5b6002600081905550565b6001600081905550565b600073ffffffffffffffffffffffffffffffffffffffff82169050919050565b600061104e82611023565b9050919050565b61105e81611043565b82525050565b60006020820190506110796000830184611055565b92915050565b600080fd5b60008115159050919050565b61109981611084565b81146110a457600080fd5b50565b6000813590506110b681611090565b92915050565b6000602082840312156110d2576110d161107f565b5b60006110e0848285016110a7565b91505092915050565b6000819050919050565b6110fc816110e9565b82525050565b600060208201905061111760008301846110f3565b92915050565b600061112882611023565b9050919050565b600061113a8261111d565b9050919050565b61114a8161112f565b811461115557600080fd5b50565b60008135905061116781611141565b92915050565b611176816110e9565b811461118157600080fd5b50565b6000813590506111938161116d565b92915050565b6000806000606084860312156111b2576111b161107f565b5b60006111c086828701611158565b93505060206111d186828701611184565b92505060406111e286828701611184565b9150509250925092565b7f4e487b7100000000000000000000000000000000000000000000000000000000600052602160045260246000fd5b6007811061122c5761122b6111ec565b5b50565b600081905061123d8261121b565b919050565b600061124d8261122f565b9050919050565b61125d81611242565b82525050565b60006020820190506112786000830184611254565b92915050565b6000602082840312156112945761129361107f565b5b60006112a284828501611184565b91505092915050565b6000819050919050565b60006112d06112cb6112c684611023565b6112ab565b611023565b9050919050565b60006112e2826112b5565b9050919050565b60006112f4826112d7565b9050919050565b611304816112e9565b82525050565b61131381611084565b82525050565b600060c08201905061132e60008301896110f3565b61133b60208301886112fb565b61134860408301876110f3565b61135560608301866110f3565b6113626080830185611055565b61136f60a083018461130a565b979650505050505050565b6113838161111d565b82525050565b6000611394826112d7565b9050919050565b6113a481611389565b82525050565b60006060820190506113bf600083018661137a565b6113cc602083018561139b565b6113d960408301846110f3565b949350505050565b60006060820190506113f6600083018661137a565b611403602083018561137a565b61141060408301846110f3565b949350505050565b600082825260208201905092915050565b7f5072696365206d7573742062652067726561746572207468616e207a65726f00600082015250565b600061145f601f83611418565b915061146a82611429565b602082019050919050565b6000602082019050818103600083015261148e81611452565b9050919050565b7f4e487b7100000000000000000000000000000000000000000000000000000000600052601160045260246000fd5b60006114cf826110e9565b91507fffffffffffffffffffffffffffffffffffffffffffffffffffffffffffffffff82141561150257611501611495565b5b600182019050919050565b600060608201905061152260008301866110f3565b61152f60208301856110f3565b61153c60408301846110f3565b949350505050565b600061154f826110e9565b915061155a836110e9565b9250827fffffffffffffffffffffffffffffffffffffffffffffffffffffffffffffffff0382111561158f5761158e611495565b5b828201905092915050565b60006115a5826110e9565b91506115b0836110e9565b9250817fffffffffffffffffffffffffffffffffffffffffffffffffffffffffffffffff04831182151516156115e9576115e8611495565b5b828202905092915050565b7f4e487b7100000000000000000000000000000000000000000000000000000000600052601260045260246000fd5b600061162e826110e9565b9150611639836110e9565b925082611649576116486115f4565b5b828204905092915050565b7f5265656e7472616e637947756172643a207265656e7472616e742063616c6c00600082015250565b600061168a601f83611418565b915061169582611654565b602082019050919050565b600060208201905081810360008301526116b98161167d565b905091905056fea2646970667358221220b6bdfd99a86877c63b34147df19441c19f7c3ddddb1fbb15347082a12b6ab6a264736f6c63430008090033",
  "linkReferences": {},
  "deployedLinkReferences": {}
}