{
  "_format": "hh-sol-artifact-1",
  "contractName": "PhygitalEscrow",
  "sourceName": "contracts/PhygitalEscrow.sol",
  "abi": [
    {
      "inputs": [],
      "stateMutability": "nonpayable",
      "type": "constructor"
    },
    {
      "anonymous": false,
      "inputs": [
        {
          "indexed": false,
          "internalType": "uint256",
          "name": "itemId",
          "type": "uint256"
        },
        {
          "indexed": true,
          "internalType": "address",
          "name": "nft",
          "type": "address"
        },
        {
          "indexed": false,
          "internalType": "uint256",
          "name": "tokenId",
          "type": "uint256"
        },
        {
          "indexed": false,
          "internalType": "uint256",
          "name": "price",
          "type": "uint256"
        },
        {
          "indexed": true,
          "internalType": "address",
          "name": "seller",
          "type": "address"
        },
        {
          "indexed": true,
          "internalType": "address",
          "name": "buyer",
          "type": "address"
        }
      ],
      "name": "Bought",
      "type": "event"
    },
    {
      "anonymous": false,
      "inputs": [
        {
          "indexed": false,
          "internalType": "uint256",
          "name": "itemId",
          "type": "uint256"
        },
        {
          "indexed": true,
          "internalType": "address",
          "name": "nft",
          "type": "address"
        },
        {
          "indexed": false,
          "internalType": "uint256",
          "name": "tokenId",
          "type": "uint256"
        },
        {
          "indexed": false,
          "internalType": "uint256",
          "name": "price",
          "type": "uint256"
        },
        {
          "indexed": true,
          "internalType": "address",
          "name": "seller",
          "type": "address"
        }
      ],
      "name": "Offered",
      "type": "event"
    },
    {
      "inputs": [
        {
          "internalType": "contract IERC721",
          "name": "_nft",
          "type": "address"
        },
        {
          "internalType": "uint256",
          "name": "_tokenId",
          "type": "uint256"
        },
        {
          "internalType": "uint256",
          "name": "_price",
          "type": "uint256"
        }
      ],
      "name": "ListNFT",
      "outputs": [],
      "stateMutability": "nonpayable",
      "type": "function"
    },
    {
      "inputs": [],
      "name": "buyer",
      "outputs": [
        {
          "internalType": "address payable",
          "name": "",
          "type": "address"
        }
      ],
      "stateMutability": "view",
      "type": "function"
    },
    {
      "inputs": [
        {
          "internalType": "bool",
          "name": "_state",
          "type": "bool"
        },
        {
          "internalType": "uint256",
          "name": "_itemId",
          "type": "uint256"
        }
      ],
      "name": "cancelBeforeDelivery",
      "outputs": [],
      "stateMutability": "payable",
      "type": "function"
    },
    {
      "inputs": [],
      "name": "confirmDelivery",
      "outputs": [],
      "stateMutability": "payable",
      "type": "function"
    },
    {
      "inputs": [],
      "name": "contractState",
      "outputs": [
        {
          "internalType": "enum PhygitalEscrow.ContractState",
          "name": "",
          "type": "uint8"
        }
      ],
      "stateMutability": "view",
      "type": "function"
    },
    {
      "inputs": [
        {
          "internalType": "uint256",
          "name": "_itemId",
          "type": "uint256"
        }
      ],
      "name": "depositETH",
      "outputs": [],
      "stateMutability": "payable",
      "type": "function"
    },
    {
      "inputs": [],
      "name": "feeAccount",
      "outputs": [
        {
          "internalType": "address payable",
          "name": "",
          "type": "address"
        }
      ],
      "stateMutability": "view",
      "type": "function"
    },
    {
      "inputs": [],
      "name": "feePercent",
      "outputs": [
        {
          "internalType": "uint256",
          "name": "",
          "type": "uint256"
        }
      ],
      "stateMutability": "view",
      "type": "function"
    },
    {
      "inputs": [
        {
          "internalType": "uint256",
          "name": "_itemId",
          "type": "uint256"
        }
      ],
      "name": "getTotalPrice",
      "outputs": [
        {
          "internalType": "uint256",
          "name": "",
          "type": "uint256"
        }
      ],
      "stateMutability": "view",
      "type": "function"
    },
    {
      "inputs": [],
      "name": "initiateDelivery",
      "outputs": [],
      "stateMutability": "nonpayable",
      "type": "function"
    },
    {
      "inputs": [],
      "name": "itemCount",
      "outputs": [
        {
          "internalType": "uint256",
          "name": "",
          "type": "uint256"
        }
      ],
      "stateMutability": "view",
      "type": "function"
    },
    {
      "inputs": [
        {
          "internalType": "uint256",
          "name": "",
          "type": "uint256"
        }
      ],
      "name": "items",
      "outputs": [
        {
          "internalType": "uint256",
          "name": "itemId",
          "type": "uint256"
        },
        {
          "internalType": "contract IERC721",
          "name": "nft",
          "type": "address"
        },
        {
          "internalType": "uint256",
          "name": "tokenId",
          "type": "uint256"
        },
        {
          "internalType": "uint256",
          "name": "price",
          "type": "uint256"
        },
        {
          "internalType": "address payable",
          "name": "seller",
          "type": "address"
        },
        {
          "internalType": "bool",
          "name": "sold",
          "type": "bool"
        }
      ],
      "stateMutability": "view",
      "type": "function"
    },
    {
      "inputs": [
        {
          "internalType": "uint256",
          "name": "_tokenID",
          "type": "uint256"
        }
      ],
      "name": "reverseNftTransfer",
      "outputs": [],
      "stateMutability": "nonpayable",
      "type": "function"
    },
    {
      "inputs": [],
      "name": "seller",
      "outputs": [
        {
          "internalType": "address payable",
          "name": "",
          "type": "address"
        }
      ],
      "stateMutability": "view",
      "type": "function"
    }
  ],
  "bytecode": "0x60c0604052600560a0908152506000600460146101000a81548160ff0219169083151502179055506000600460156101000a81548160ff02191690831515021790555034801561004e57600080fd5b5060016000819055503373ffffffffffffffffffffffffffffffffffffffff1660808173ffffffffffffffffffffffffffffffffffffffff16815250506000600660006101000a81548160ff021916908360068111156100b1576100b06100bb565b5b02179055506100ea565b7f4e487b7100000000000000000000000000000000000000000000000000000000600052602160045260246000fd5b60805160a05161187161011660003960008181610a620152610d92015260006106d201526118716000f3fe6080604052600436106100dd5760003560e01c80637fd6f15c1161007f578063aa41403e11610059578063aa41403e1461024a578063bfb231d214610273578063ca7dd375146102b5578063e9646786146102f2576100dd565b80637fd6f15c146101dd57806385209ee014610208578063a1ee418114610233576100dd565b806365e17c9d116100bb57806365e17c9d146101335780636bfb0d011461015e5780636cd52e2a146101895780637150d8ae146101b2576100dd565b806308551a53146100e25780635358fbda1461010d5780635e10177b14610129575b600080fd5b3480156100ee57600080fd5b506100f761030e565b60405161010491906111cc565b60405180910390f35b61012760048036038101906101229190611222565b610334565b005b6101316104ea565b005b34801561013f57600080fd5b506101486106d0565b60405161015591906111cc565b60405180910390f35b34801561016a57600080fd5b506101736106f4565b604051610180919061125e565b60405180910390f35b34801561019557600080fd5b506101b060048036038101906101ab91906112c9565b6106fa565b005b3480156101be57600080fd5b506101c7610a3a565b6040516101d491906111cc565b60405180910390f35b3480156101e957600080fd5b506101f2610a60565b6040516101ff919061125e565b60405180910390f35b34801561021457600080fd5b5061021d610a84565b60405161022a9190611393565b60405180910390f35b34801561023f57600080fd5b50610248610a97565b005b34801561025657600080fd5b50610271600480360381019061026c9190611222565b610b9f565b005b34801561027f57600080fd5b5061029a60048036038101906102959190611222565b610d03565b6040516102ac96959493929190611428565b60405180910390f35b3480156102c157600080fd5b506102dc60048036038101906102d79190611222565b610d8c565b6040516102e9919061125e565b60405180910390f35b61030c600480360381019061030791906114b5565b610def565b005b600260009054906101000a900473ffffffffffffffffffffffffffffffffffffffff1681565b60018060068111156103495761034861131c565b5b600660009054906101000a900460ff16600681111561036b5761036a61131c565b5b1461037557600080fd5b33600360006101000a81548173ffffffffffffffffffffffffffffffffffffffff021916908373ffffffffffffffffffffffffffffffffffffffff160217905550600060076000848152602001908152602001600020905060018160040160146101000a81548160ff0219169083151502179055503373ffffffffffffffffffffffffffffffffffffffff168160040160009054906101000a900473ffffffffffffffffffffffffffffffffffffffff1673ffffffffffffffffffffffffffffffffffffffff168260010160009054906101000a900473ffffffffffffffffffffffffffffffffffffffff1673ffffffffffffffffffffffffffffffffffffffff167f8b4c9c8a607d67b321582dd8461041b1dc2ceeca70c8b7f37f8e02095cf2e76d86856002015486600301546040516104b2939291906114f5565b60405180910390a46003600660006101000a81548160ff021916908360068111156104e0576104df61131c565b5b0217905550505050565b60058060068111156104ff576104fe61131c565b5b600660009054906101000a900460ff1660068111156105215761052061131c565b5b1461052b57600080fd5b600360009054906101000a900473ffffffffffffffffffffffffffffffffffffffff1673ffffffffffffffffffffffffffffffffffffffff163373ffffffffffffffffffffffffffffffffffffffff161461058557600080fd5b600460009054906101000a900473ffffffffffffffffffffffffffffffffffffffff1673ffffffffffffffffffffffffffffffffffffffff166342842e0e30600360009054906101000a900473ffffffffffffffffffffffffffffffffffffffff166005546040518463ffffffff1660e01b81526004016106089392919061155c565b600060405180830381600087803b15801561062257600080fd5b505af1158015610636573d6000803e3d6000fd5b50505050600260009054906101000a900473ffffffffffffffffffffffffffffffffffffffff1673ffffffffffffffffffffffffffffffffffffffff166108fc479081150290604051600060405180830381858888f193505050501580156106a2573d6000803e3d6000fd5b5060068060006101000a81548160ff021916908360068111156106c8576106c761131c565b5b021790555050565b7f000000000000000000000000000000000000000000000000000000000000000081565b60015481565b610702611131565b60008111610745576040517f08c379a000000000000000000000000000000000000000000000000000000000815260040161073c906115f0565b60405180910390fd5b600160008154809291906107589061163f565b91905055508160058190555082600460006101000a81548173ffffffffffffffffffffffffffffffffffffffff021916908373ffffffffffffffffffffffffffffffffffffffff16021790555033600260006101000a81548173ffffffffffffffffffffffffffffffffffffffff021916908373ffffffffffffffffffffffffffffffffffffffff1602179055508273ffffffffffffffffffffffffffffffffffffffff166323b872dd3330856040518463ffffffff1660e01b815260040161082393929190611688565b600060405180830381600087803b15801561083d57600080fd5b505af1158015610851573d6000803e3d6000fd5b505050506040518060c0016040528060015481526020018473ffffffffffffffffffffffffffffffffffffffff1681526020018381526020018281526020013373ffffffffffffffffffffffffffffffffffffffff168152602001600015158152506007600060015481526020019081526020016000206000820151816000015560208201518160010160006101000a81548173ffffffffffffffffffffffffffffffffffffffff021916908373ffffffffffffffffffffffffffffffffffffffff160217905550604082015181600201556060820151816003015560808201518160040160006101000a81548173ffffffffffffffffffffffffffffffffffffffff021916908373ffffffffffffffffffffffffffffffffffffffff16021790555060a08201518160040160146101000a81548160ff0219169083151502179055509050503373ffffffffffffffffffffffffffffffffffffffff168373ffffffffffffffffffffffffffffffffffffffff167f655a0cf9c8db81512be9a76dc1c5ae5380b8816ce6ad659cd61b715e2999d59a60015485856040516109fa939291906114f5565b60405180910390a36001600660006101000a81548160ff02191690836006811115610a2857610a2761131c565b5b0217905550610a35611181565b505050565b600360009054906101000a900473ffffffffffffffffffffffffffffffffffffffff1681565b7f000000000000000000000000000000000000000000000000000000000000000081565b600660009054906101000a900460ff1681565b6003806006811115610aac57610aab61131c565b5b600660009054906101000a900460ff166006811115610ace57610acd61131c565b5b14610ad857600080fd5b600260009054906101000a900473ffffffffffffffffffffffffffffffffffffffff1673ffffffffffffffffffffffffffffffffffffffff163373ffffffffffffffffffffffffffffffffffffffff1614610b3257600080fd5b60001515600460149054906101000a900460ff161515148015610b68575060001515600460159054906101000a900460ff161515145b610b7157600080fd5b6005600660006101000a81548160ff02191690836006811115610b9757610b9661131c565b5b021790555050565b6001806006811115610bb457610bb361131c565b5b600660009054906101000a900460ff166006811115610bd657610bd561131c565b5b14610be057600080fd5b600260009054906101000a900473ffffffffffffffffffffffffffffffffffffffff1673ffffffffffffffffffffffffffffffffffffffff163373ffffffffffffffffffffffffffffffffffffffff1614610c3a57600080fd5b81600581905550600460009054906101000a900473ffffffffffffffffffffffffffffffffffffffff1673ffffffffffffffffffffffffffffffffffffffff166342842e0e30336005546040518463ffffffff1660e01b8152600401610ca293929190611688565b600060405180830381600087803b158015610cbc57600080fd5b505af1158015610cd0573d6000803e3d6000fd5b505050506002600660006101000a81548160ff02191690836006811115610cfa57610cf961131c565b5b02179055505050565b60076020528060005260406000206000915090508060000154908060010160009054906101000a900473ffffffffffffffffffffffffffffffffffffffff16908060020154908060030154908060040160009054906101000a900473ffffffffffffffffffffffffffffffffffffffff16908060040160149054906101000a900460ff16905086565b600060647f00000000000000000000000000000000000000000000000000000000000000006064610dbd91906116bf565b6007600085815260200190815260200160002060030154610dde9190611715565b610de8919061179e565b9050919050565b6003806006811115610e0457610e0361131c565b5b600660009054906101000a900460ff166006811115610e2657610e2561131c565b5b14610e3057600080fd5b600360009054906101000a900473ffffffffffffffffffffffffffffffffffffffff1673ffffffffffffffffffffffffffffffffffffffff163373ffffffffffffffffffffffffffffffffffffffff161480610ed95750600260009054906101000a900473ffffffffffffffffffffffffffffffffffffffff1673ffffffffffffffffffffffffffffffffffffffff163373ffffffffffffffffffffffffffffffffffffffff16145b610ee257600080fd5b600260009054906101000a900473ffffffffffffffffffffffffffffffffffffffff1673ffffffffffffffffffffffffffffffffffffffff163373ffffffffffffffffffffffffffffffffffffffff161415610f575782600460156101000a81548160ff021916908315150217905550610f72565b82600460146101000a81548160ff0219169083151502179055505b60011515600460159054906101000a900460ff161515148015610fa8575060011515600460149054906101000a900460ff161515145b1561112c57600460009054906101000a900473ffffffffffffffffffffffffffffffffffffffff1673ffffffffffffffffffffffffffffffffffffffff166342842e0e30600260009054906101000a900473ffffffffffffffffffffffffffffffffffffffff166005546040518463ffffffff1660e01b81526004016110309392919061155c565b600060405180830381600087803b15801561104a57600080fd5b505af115801561105e573d6000803e3d6000fd5b50505050600360009054906101000a900473ffffffffffffffffffffffffffffffffffffffff1673ffffffffffffffffffffffffffffffffffffffff166108fc479081150290604051600060405180830381858888f193505050501580156110ca573d6000803e3d6000fd5b50600060076000848152602001908152602001600020905060008160040160146101000a81548160ff0219169083151502179055506004600660006101000a81548160ff021916908360068111156111255761112461131c565b5b0217905550505b505050565b60026000541415611177576040517f08c379a000000000000000000000000000000000000000000000000000000000815260040161116e9061181b565b60405180910390fd5b6002600081905550565b6001600081905550565b600073ffffffffffffffffffffffffffffffffffffffff82169050919050565b60006111b68261118b565b9050919050565b6111c6816111ab565b82525050565b60006020820190506111e160008301846111bd565b92915050565b600080fd5b6000819050919050565b6111ff816111ec565b811461120a57600080fd5b50565b60008135905061121c816111f6565b92915050565b600060208284031215611238576112376111e7565b5b60006112468482850161120d565b91505092915050565b611258816111ec565b82525050565b6000602082019050611273600083018461124f565b92915050565b60006112848261118b565b9050919050565b600061129682611279565b9050919050565b6112a68161128b565b81146112b157600080fd5b50565b6000813590506112c38161129d565b92915050565b6000806000606084860312156112e2576112e16111e7565b5b60006112f0868287016112b4565b93505060206113018682870161120d565b92505060406113128682870161120d565b9150509250925092565b7f4e487b7100000000000000000000000000000000000000000000000000000000600052602160045260246000fd5b6007811061135c5761135b61131c565b5b50565b600081905061136d8261134b565b919050565b600061137d8261135f565b9050919050565b61138d81611372565b82525050565b60006020820190506113a86000830184611384565b92915050565b6000819050919050565b60006113d36113ce6113c98461118b565b6113ae565b61118b565b9050919050565b60006113e5826113b8565b9050919050565b60006113f7826113da565b9050919050565b611407816113ec565b82525050565b60008115159050919050565b6114228161140d565b82525050565b600060c08201905061143d600083018961124f565b61144a60208301886113fe565b611457604083018761124f565b611464606083018661124f565b61147160808301856111bd565b61147e60a0830184611419565b979650505050505050565b6114928161140d565b811461149d57600080fd5b50565b6000813590506114af81611489565b92915050565b600080604083850312156114cc576114cb6111e7565b5b60006114da858286016114a0565b92505060206114eb8582860161120d565b9150509250929050565b600060608201905061150a600083018661124f565b611517602083018561124f565b611524604083018461124f565b949350505050565b61153581611279565b82525050565b6000611546826113da565b9050919050565b6115568161153b565b82525050565b6000606082019050611571600083018661152c565b61157e602083018561154d565b61158b604083018461124f565b949350505050565b600082825260208201905092915050565b7f5072696365206d7573742062652067726561746572207468616e207a65726f00600082015250565b60006115da601f83611593565b91506115e5826115a4565b602082019050919050565b60006020820190508181036000830152611609816115cd565b9050919050565b7f4e487b7100000000000000000000000000000000000000000000000000000000600052601160045260246000fd5b600061164a826111ec565b91507fffffffffffffffffffffffffffffffffffffffffffffffffffffffffffffffff82141561167d5761167c611610565b5b600182019050919050565b600060608201905061169d600083018661152c565b6116aa602083018561152c565b6116b7604083018461124f565b949350505050565b60006116ca826111ec565b91506116d5836111ec565b9250827fffffffffffffffffffffffffffffffffffffffffffffffffffffffffffffffff0382111561170a57611709611610565b5b828201905092915050565b6000611720826111ec565b915061172b836111ec565b9250817fffffffffffffffffffffffffffffffffffffffffffffffffffffffffffffffff048311821515161561176457611763611610565b5b828202905092915050565b7f4e487b7100000000000000000000000000000000000000000000000000000000600052601260045260246000fd5b60006117a9826111ec565b91506117b4836111ec565b9250826117c4576117c361176f565b5b828204905092915050565b7f5265656e7472616e637947756172643a207265656e7472616e742063616c6c00600082015250565b6000611805601f83611593565b9150611810826117cf565b602082019050919050565b60006020820190508181036000830152611834816117f8565b905091905056fea264697066735822122050e0fd70f79a8f871f3d931bb56e3f1c6ab558d998f3c840ff22e4ea9009280f64736f6c63430008090033",
  "linkReferences": {},
  "deployedLinkReferences": {}
}