{
  "_format": "hh-sol-artifact-1",
  "contractName": "Remake_PhygitalEscrow",
  "sourceName": "contracts/remake_phygitalEscrow.sol",
  "abi": [
    {
      "inputs": [],
      "stateMutability": "nonpayable",
      "type": "constructor"
    },
    {
      "anonymous": false,
      "inputs": [
        {
          "indexed": false,
          "internalType": "uint256",
          "name": "itemId",
          "type": "uint256"
        },
        {
          "indexed": true,
          "internalType": "address",
          "name": "nft",
          "type": "address"
        },
        {
          "indexed": false,
          "internalType": "uint256",
          "name": "tokenId",
          "type": "uint256"
        },
        {
          "indexed": false,
          "internalType": "uint256",
          "name": "price",
          "type": "uint256"
        },
        {
          "indexed": true,
          "internalType": "address",
          "name": "seller",
          "type": "address"
        },
        {
          "indexed": true,
          "internalType": "address",
          "name": "buyer",
          "type": "address"
        }
      ],
      "name": "Bought",
      "type": "event"
    },
    {
      "anonymous": false,
      "inputs": [
        {
          "indexed": false,
          "internalType": "uint256",
          "name": "itemId",
          "type": "uint256"
        },
        {
          "indexed": true,
          "internalType": "address",
          "name": "nft",
          "type": "address"
        },
        {
          "indexed": false,
          "internalType": "uint256",
          "name": "tokenId",
          "type": "uint256"
        },
        {
          "indexed": false,
          "internalType": "uint256",
          "name": "price",
          "type": "uint256"
        },
        {
          "indexed": true,
          "internalType": "address",
          "name": "seller",
          "type": "address"
        }
      ],
      "name": "Offered",
      "type": "event"
    },
    {
      "inputs": [
        {
          "internalType": "contract IERC721",
          "name": "_nft",
          "type": "address"
        },
        {
          "internalType": "uint256",
          "name": "_tokenId",
          "type": "uint256"
        },
        {
          "internalType": "uint256",
          "name": "_price",
          "type": "uint256"
        }
      ],
      "name": "ListNFT",
      "outputs": [],
      "stateMutability": "nonpayable",
      "type": "function"
    },
    {
      "inputs": [],
      "name": "buyer",
      "outputs": [
        {
          "internalType": "address payable",
          "name": "",
          "type": "address"
        }
      ],
      "stateMutability": "view",
      "type": "function"
    },
    {
      "inputs": [
        {
          "internalType": "uint256",
          "name": "_tokenID",
          "type": "uint256"
        }
      ],
      "name": "cancelBeforeDelivery",
      "outputs": [],
      "stateMutability": "nonpayable",
      "type": "function"
    },
    {
      "inputs": [
        {
          "internalType": "uint256",
          "name": "tokenId",
          "type": "uint256"
        }
      ],
      "name": "confirmDelivery",
      "outputs": [],
      "stateMutability": "nonpayable",
      "type": "function"
    },
    {
      "inputs": [],
      "name": "contractState",
      "outputs": [
        {
          "internalType": "enum Remake_PhygitalEscrow.ContractState",
          "name": "",
          "type": "uint8"
        }
      ],
      "stateMutability": "view",
      "type": "function"
    },
    {
      "inputs": [
        {
          "internalType": "uint256",
          "name": "_tokenId",
          "type": "uint256"
        }
      ],
      "name": "depositETH",
      "outputs": [],
      "stateMutability": "payable",
      "type": "function"
    },
    {
      "inputs": [],
      "name": "feeAccount",
      "outputs": [
        {
          "internalType": "address payable",
          "name": "",
          "type": "address"
        }
      ],
      "stateMutability": "view",
      "type": "function"
    },
    {
      "inputs": [],
      "name": "feePercent",
      "outputs": [
        {
          "internalType": "uint256",
          "name": "",
          "type": "uint256"
        }
      ],
      "stateMutability": "view",
      "type": "function"
    },
    {
      "inputs": [
        {
          "internalType": "uint256",
          "name": "_itemId",
          "type": "uint256"
        }
      ],
      "name": "getTotalPrice",
      "outputs": [
        {
          "internalType": "uint256",
          "name": "",
          "type": "uint256"
        }
      ],
      "stateMutability": "view",
      "type": "function"
    },
    {
      "inputs": [],
      "name": "initiateDelivery",
      "outputs": [],
      "stateMutability": "nonpayable",
      "type": "function"
    },
    {
      "inputs": [],
      "name": "itemCount",
      "outputs": [
        {
          "internalType": "uint256",
          "name": "",
          "type": "uint256"
        }
      ],
      "stateMutability": "view",
      "type": "function"
    },
    {
      "inputs": [
        {
          "internalType": "uint256",
          "name": "",
          "type": "uint256"
        }
      ],
      "name": "items",
      "outputs": [
        {
          "internalType": "uint256",
          "name": "itemId",
          "type": "uint256"
        },
        {
          "internalType": "contract IERC721",
          "name": "nft",
          "type": "address"
        },
        {
          "internalType": "uint256",
          "name": "tokenId",
          "type": "uint256"
        },
        {
          "internalType": "uint256",
          "name": "price",
          "type": "uint256"
        },
        {
          "internalType": "address payable",
          "name": "seller",
          "type": "address"
        },
        {
          "internalType": "bool",
          "name": "sold",
          "type": "bool"
        }
      ],
      "stateMutability": "view",
      "type": "function"
    },
    {
      "inputs": [
        {
          "internalType": "uint256",
          "name": "_tokenID",
          "type": "uint256"
        }
      ],
      "name": "reverseNftTransfer",
      "outputs": [],
      "stateMutability": "nonpayable",
      "type": "function"
    },
    {
      "inputs": [],
      "name": "seller",
      "outputs": [
        {
          "internalType": "address payable",
          "name": "",
          "type": "address"
        }
      ],
      "stateMutability": "view",
      "type": "function"
    }
  ],
  "bytecode": "0x60c0604052600160a0908152506000600460146101000a81548160ff0219169083151502179055506000600460156101000a81548160ff02191690831515021790555034801561004e57600080fd5b5060016000819055503373ffffffffffffffffffffffffffffffffffffffff1660808173ffffffffffffffffffffffffffffffffffffffff16815250506000600660006101000a81548160ff021916908360068111156100b1576100b06100bb565b5b02179055506100ea565b7f4e487b7100000000000000000000000000000000000000000000000000000000600052602160045260246000fd5b60805160a051611763610116600039600081816108a80152610e4d0152600061051801526117636000f3fe6080604052600436106100dd5760003560e01c806385209ee01161007f578063bc3d1f5d11610059578063bc3d1f5d14610269578063bfb231d214610292578063ca7dd375146102d4578063fd84cb9714610311576100dd565b806385209ee0146101fe578063a1ee418114610229578063aa41403e14610240576100dd565b80636bfb0d01116100bb5780636bfb0d01146101545780636cd52e2a1461017f5780637150d8ae146101a85780637fd6f15c146101d3576100dd565b806308551a53146100e25780635358fbda1461010d57806365e17c9d14610129575b600080fd5b3480156100ee57600080fd5b506100f761033a565b604051610104919061112a565b60405180910390f35b61012760048036038101906101229190611180565b610360565b005b34801561013557600080fd5b5061013e610516565b60405161014b919061112a565b60405180910390f35b34801561016057600080fd5b5061016961053a565b60405161017691906111bc565b60405180910390f35b34801561018b57600080fd5b506101a660048036038101906101a19190611227565b610540565b005b3480156101b457600080fd5b506101bd610880565b6040516101ca919061112a565b60405180910390f35b3480156101df57600080fd5b506101e86108a6565b6040516101f591906111bc565b60405180910390f35b34801561020a57600080fd5b506102136108ca565b60405161022091906112f1565b60405180910390f35b34801561023557600080fd5b5061023e6108dd565b005b34801561024c57600080fd5b5061026760048036038101906102629190611180565b6109e5565b005b34801561027557600080fd5b50610290600480360381019061028b9190611180565b610b49565b005b34801561029e57600080fd5b506102b960048036038101906102b49190611180565b610dbe565b6040516102cb96959493929190611386565b60405180910390f35b3480156102e057600080fd5b506102fb60048036038101906102f69190611180565b610e47565b60405161030891906111bc565b60405180910390f35b34801561031d57600080fd5b5061033860048036038101906103339190611180565b610eaa565b005b600260009054906101000a900473ffffffffffffffffffffffffffffffffffffffff1681565b60018060068111156103755761037461127a565b5b600660009054906101000a900460ff1660068111156103975761039661127a565b5b146103a157600080fd5b33600360006101000a81548173ffffffffffffffffffffffffffffffffffffffff021916908373ffffffffffffffffffffffffffffffffffffffff160217905550600060076000848152602001908152602001600020905060018160040160146101000a81548160ff0219169083151502179055503373ffffffffffffffffffffffffffffffffffffffff168160040160009054906101000a900473ffffffffffffffffffffffffffffffffffffffff1673ffffffffffffffffffffffffffffffffffffffff168260010160009054906101000a900473ffffffffffffffffffffffffffffffffffffffff1673ffffffffffffffffffffffffffffffffffffffff167f8b4c9c8a607d67b321582dd8461041b1dc2ceeca70c8b7f37f8e02095cf2e76d84600001548786600301546040516104de939291906113e7565b60405180910390a46003600660006101000a81548160ff0219169083600681111561050c5761050b61127a565b5b0217905550505050565b7f000000000000000000000000000000000000000000000000000000000000000081565b60015481565b61054861108f565b6000811161058b576040517f08c379a00000000000000000000000000000000000000000000000000000000081526004016105829061147b565b60405180910390fd5b6001600081548092919061059e906114ca565b91905055508160058190555082600460006101000a81548173ffffffffffffffffffffffffffffffffffffffff021916908373ffffffffffffffffffffffffffffffffffffffff16021790555033600260006101000a81548173ffffffffffffffffffffffffffffffffffffffff021916908373ffffffffffffffffffffffffffffffffffffffff1602179055508273ffffffffffffffffffffffffffffffffffffffff166323b872dd3330856040518463ffffffff1660e01b815260040161066993929190611522565b600060405180830381600087803b15801561068357600080fd5b505af1158015610697573d6000803e3d6000fd5b505050506040518060c0016040528060015481526020018473ffffffffffffffffffffffffffffffffffffffff1681526020018381526020018281526020013373ffffffffffffffffffffffffffffffffffffffff168152602001600015158152506007600060015481526020019081526020016000206000820151816000015560208201518160010160006101000a81548173ffffffffffffffffffffffffffffffffffffffff021916908373ffffffffffffffffffffffffffffffffffffffff160217905550604082015181600201556060820151816003015560808201518160040160006101000a81548173ffffffffffffffffffffffffffffffffffffffff021916908373ffffffffffffffffffffffffffffffffffffffff16021790555060a08201518160040160146101000a81548160ff0219169083151502179055509050503373ffffffffffffffffffffffffffffffffffffffff168373ffffffffffffffffffffffffffffffffffffffff167f655a0cf9c8db81512be9a76dc1c5ae5380b8816ce6ad659cd61b715e2999d59a6001548585604051610840939291906113e7565b60405180910390a36001600660006101000a81548160ff0219169083600681111561086e5761086d61127a565b5b021790555061087b6110df565b505050565b600360009054906101000a900473ffffffffffffffffffffffffffffffffffffffff1681565b7f000000000000000000000000000000000000000000000000000000000000000081565b600660009054906101000a900460ff1681565b60038060068111156108f2576108f161127a565b5b600660009054906101000a900460ff1660068111156109145761091361127a565b5b1461091e57600080fd5b600260009054906101000a900473ffffffffffffffffffffffffffffffffffffffff1673ffffffffffffffffffffffffffffffffffffffff163373ffffffffffffffffffffffffffffffffffffffff161461097857600080fd5b60001515600460149054906101000a900460ff1615151480156109ae575060001515600460159054906101000a900460ff161515145b6109b757600080fd5b6005600660006101000a81548160ff021916908360068111156109dd576109dc61127a565b5b021790555050565b60018060068111156109fa576109f961127a565b5b600660009054906101000a900460ff166006811115610a1c57610a1b61127a565b5b14610a2657600080fd5b600260009054906101000a900473ffffffffffffffffffffffffffffffffffffffff1673ffffffffffffffffffffffffffffffffffffffff163373ffffffffffffffffffffffffffffffffffffffff1614610a8057600080fd5b81600581905550600460009054906101000a900473ffffffffffffffffffffffffffffffffffffffff1673ffffffffffffffffffffffffffffffffffffffff166342842e0e30336005546040518463ffffffff1660e01b8152600401610ae893929190611522565b600060405180830381600087803b158015610b0257600080fd5b505af1158015610b16573d6000803e3d6000fd5b505050506002600660006101000a81548160ff02191690836006811115610b4057610b3f61127a565b5b02179055505050565b6003806006811115610b5e57610b5d61127a565b5b600660009054906101000a900460ff166006811115610b8057610b7f61127a565b5b14610b8a57600080fd5b600360009054906101000a900473ffffffffffffffffffffffffffffffffffffffff1673ffffffffffffffffffffffffffffffffffffffff163373ffffffffffffffffffffffffffffffffffffffff161480610c335750600260009054906101000a900473ffffffffffffffffffffffffffffffffffffffff1673ffffffffffffffffffffffffffffffffffffffff163373ffffffffffffffffffffffffffffffffffffffff16145b610c3c57600080fd5b600460009054906101000a900473ffffffffffffffffffffffffffffffffffffffff1673ffffffffffffffffffffffffffffffffffffffff166342842e0e30600260009054906101000a900473ffffffffffffffffffffffffffffffffffffffff166005546040518463ffffffff1660e01b8152600401610cbf9392919061157a565b600060405180830381600087803b158015610cd957600080fd5b505af1158015610ced573d6000803e3d6000fd5b50505050600360009054906101000a900473ffffffffffffffffffffffffffffffffffffffff1673ffffffffffffffffffffffffffffffffffffffff166108fc479081150290604051600060405180830381858888f19350505050158015610d59573d6000803e3d6000fd5b50600060076000848152602001908152602001600020905060008160040160146101000a81548160ff0219169083151502179055506004600660006101000a81548160ff02191690836006811115610db457610db361127a565b5b0217905550505050565b60076020528060005260406000206000915090508060000154908060010160009054906101000a900473ffffffffffffffffffffffffffffffffffffffff16908060020154908060030154908060040160009054906101000a900473ffffffffffffffffffffffffffffffffffffffff16908060040160149054906101000a900460ff16905086565b600060647f00000000000000000000000000000000000000000000000000000000000000006064610e7891906115b1565b6007600085815260200190815260200160002060030154610e999190611607565b610ea39190611690565b9050919050565b6005806006811115610ebf57610ebe61127a565b5b600660009054906101000a900460ff166006811115610ee157610ee061127a565b5b14610eeb57600080fd5b600360009054906101000a900473ffffffffffffffffffffffffffffffffffffffff1673ffffffffffffffffffffffffffffffffffffffff163373ffffffffffffffffffffffffffffffffffffffff1614610f4557600080fd5b600460009054906101000a900473ffffffffffffffffffffffffffffffffffffffff1673ffffffffffffffffffffffffffffffffffffffff166342842e0e30600360009054906101000a900473ffffffffffffffffffffffffffffffffffffffff16856040518463ffffffff1660e01b8152600401610fc69392919061157a565b600060405180830381600087803b158015610fe057600080fd5b505af1158015610ff4573d6000803e3d6000fd5b50505050600260009054906101000a900473ffffffffffffffffffffffffffffffffffffffff1673ffffffffffffffffffffffffffffffffffffffff166108fc479081150290604051600060405180830381858888f19350505050158015611060573d6000803e3d6000fd5b5060068060006101000a81548160ff021916908360068111156110865761108561127a565b5b02179055505050565b600260005414156110d5576040517f08c379a00000000000000000000000000000000000000000000000000000000081526004016110cc9061170d565b60405180910390fd5b6002600081905550565b6001600081905550565b600073ffffffffffffffffffffffffffffffffffffffff82169050919050565b6000611114826110e9565b9050919050565b61112481611109565b82525050565b600060208201905061113f600083018461111b565b92915050565b600080fd5b6000819050919050565b61115d8161114a565b811461116857600080fd5b50565b60008135905061117a81611154565b92915050565b60006020828403121561119657611195611145565b5b60006111a48482850161116b565b91505092915050565b6111b68161114a565b82525050565b60006020820190506111d160008301846111ad565b92915050565b60006111e2826110e9565b9050919050565b60006111f4826111d7565b9050919050565b611204816111e9565b811461120f57600080fd5b50565b600081359050611221816111fb565b92915050565b6000806000606084860312156112405761123f611145565b5b600061124e86828701611212565b935050602061125f8682870161116b565b92505060406112708682870161116b565b9150509250925092565b7f4e487b7100000000000000000000000000000000000000000000000000000000600052602160045260246000fd5b600781106112ba576112b961127a565b5b50565b60008190506112cb826112a9565b919050565b60006112db826112bd565b9050919050565b6112eb816112d0565b82525050565b600060208201905061130660008301846112e2565b92915050565b6000819050919050565b600061133161132c611327846110e9565b61130c565b6110e9565b9050919050565b600061134382611316565b9050919050565b600061135582611338565b9050919050565b6113658161134a565b82525050565b60008115159050919050565b6113808161136b565b82525050565b600060c08201905061139b60008301896111ad565b6113a8602083018861135c565b6113b560408301876111ad565b6113c260608301866111ad565b6113cf608083018561111b565b6113dc60a0830184611377565b979650505050505050565b60006060820190506113fc60008301866111ad565b61140960208301856111ad565b61141660408301846111ad565b949350505050565b600082825260208201905092915050565b7f5072696365206d7573742062652067726561746572207468616e207a65726f00600082015250565b6000611465601f8361141e565b91506114708261142f565b602082019050919050565b6000602082019050818103600083015261149481611458565b9050919050565b7f4e487b7100000000000000000000000000000000000000000000000000000000600052601160045260246000fd5b60006114d58261114a565b91507fffffffffffffffffffffffffffffffffffffffffffffffffffffffffffffffff8214156115085761150761149b565b5b600182019050919050565b61151c816111d7565b82525050565b60006060820190506115376000830186611513565b6115446020830185611513565b61155160408301846111ad565b949350505050565b600061156482611338565b9050919050565b61157481611559565b82525050565b600060608201905061158f6000830186611513565b61159c602083018561156b565b6115a960408301846111ad565b949350505050565b60006115bc8261114a565b91506115c78361114a565b9250827fffffffffffffffffffffffffffffffffffffffffffffffffffffffffffffffff038211156115fc576115fb61149b565b5b828201905092915050565b60006116128261114a565b915061161d8361114a565b9250817fffffffffffffffffffffffffffffffffffffffffffffffffffffffffffffffff04831182151516156116565761165561149b565b5b828202905092915050565b7f4e487b7100000000000000000000000000000000000000000000000000000000600052601260045260246000fd5b600061169b8261114a565b91506116a68361114a565b9250826116b6576116b5611661565b5b828204905092915050565b7f5265656e7472616e637947756172643a207265656e7472616e742063616c6c00600082015250565b60006116f7601f8361141e565b9150611702826116c1565b602082019050919050565b60006020820190508181036000830152611726816116ea565b905091905056fea264697066735822122077d07a3d710136e6c3b0ec11787f165aab404e73614a4ba52fe58d5e0846aa9d64736f6c63430008090033",
  "linkReferences": {},
  "deployedLinkReferences": {}
}