{
  "_format": "hh-sol-artifact-1",
  "contractName": "remakePhygitalEscrow2",
  "sourceName": "contracts/remakePhygitalEscrow2.sol",
  "abi": [
    {
      "inputs": [],
      "stateMutability": "nonpayable",
      "type": "constructor"
    },
    {
      "anonymous": false,
      "inputs": [
        {
          "indexed": true,
          "internalType": "uint256",
          "name": "itemId",
          "type": "uint256"
        },
        {
          "indexed": true,
          "internalType": "address",
          "name": "buyer",
          "type": "address"
        },
        {
          "indexed": false,
          "internalType": "uint256",
          "name": "totalPrice",
          "type": "uint256"
        }
      ],
      "name": "ItemSold",
      "type": "event"
    },
    {
      "inputs": [
        {
          "internalType": "contract IERC721",
          "name": "_nft",
          "type": "address"
        },
        {
          "internalType": "uint256",
          "name": "_tokenId",
          "type": "uint256"
        },
        {
          "internalType": "uint256",
          "name": "_price",
          "type": "uint256"
        }
      ],
      "name": "ListNFT",
      "outputs": [],
      "stateMutability": "nonpayable",
      "type": "function"
    },
    {
      "inputs": [],
      "name": "buyer",
      "outputs": [
        {
          "internalType": "address payable",
          "name": "",
          "type": "address"
        }
      ],
      "stateMutability": "view",
      "type": "function"
    },
    {
      "inputs": [
        {
          "internalType": "uint256",
          "name": "_tokenId",
          "type": "uint256"
        }
      ],
      "name": "cancelBeforeDelivery",
      "outputs": [],
      "stateMutability": "nonpayable",
      "type": "function"
    },
    {
      "inputs": [
        {
          "internalType": "uint256",
          "name": "_tokenId",
          "type": "uint256"
        }
      ],
      "name": "confirmDeliveryFinalizeSale",
      "outputs": [],
      "stateMutability": "nonpayable",
      "type": "function"
    },
    {
      "inputs": [
        {
          "internalType": "uint256",
          "name": "_tokenId",
          "type": "uint256"
        }
      ],
      "name": "depositETH",
      "outputs": [],
      "stateMutability": "payable",
      "type": "function"
    },
    {
      "inputs": [],
      "name": "feeAccount",
      "outputs": [
        {
          "internalType": "address payable",
          "name": "",
          "type": "address"
        }
      ],
      "stateMutability": "view",
      "type": "function"
    },
    {
      "inputs": [],
      "name": "feePercent",
      "outputs": [
        {
          "internalType": "uint256",
          "name": "",
          "type": "uint256"
        }
      ],
      "stateMutability": "view",
      "type": "function"
    },
    {
      "inputs": [
        {
          "internalType": "uint256",
          "name": "_tokenId",
          "type": "uint256"
        }
      ],
      "name": "getTotalPrice",
      "outputs": [
        {
          "internalType": "uint256",
          "name": "",
          "type": "uint256"
        }
      ],
      "stateMutability": "view",
      "type": "function"
    },
    {
      "inputs": [
        {
          "internalType": "uint256",
          "name": "_tokenId",
          "type": "uint256"
        }
      ],
      "name": "initiateDelivery",
      "outputs": [],
      "stateMutability": "nonpayable",
      "type": "function"
    },
    {
      "inputs": [],
      "name": "itemCount",
      "outputs": [
        {
          "internalType": "uint256",
          "name": "",
          "type": "uint256"
        }
      ],
      "stateMutability": "view",
      "type": "function"
    },
    {
      "inputs": [
        {
          "internalType": "uint256",
          "name": "",
          "type": "uint256"
        }
      ],
      "name": "items",
      "outputs": [
        {
          "internalType": "uint256",
          "name": "itemId",
          "type": "uint256"
        },
        {
          "internalType": "uint256",
          "name": "tokenId",
          "type": "uint256"
        },
        {
          "internalType": "contract IERC721",
          "name": "nft",
          "type": "address"
        },
        {
          "internalType": "uint256",
          "name": "price",
          "type": "uint256"
        },
        {
          "internalType": "address payable",
          "name": "seller",
          "type": "address"
        },
        {
          "internalType": "bool",
          "name": "sold",
          "type": "bool"
        },
        {
          "internalType": "enum remakePhygitalEscrow2.ItemState",
          "name": "state",
          "type": "uint8"
        }
      ],
      "stateMutability": "view",
      "type": "function"
    },
    {
      "inputs": [
        {
          "internalType": "uint256",
          "name": "_tokenId",
          "type": "uint256"
        }
      ],
      "name": "reverseNftTransfer",
      "outputs": [],
      "stateMutability": "nonpayable",
      "type": "function"
    },
    {
      "inputs": [],
      "name": "seller",
      "outputs": [
        {
          "internalType": "address payable",
          "name": "",
          "type": "address"
        }
      ],
      "stateMutability": "view",
      "type": "function"
    },
    {
      "inputs": [
        {
          "internalType": "uint256",
          "name": "tokenId",
          "type": "uint256"
        },
        {
          "internalType": "enum remakePhygitalEscrow2.ItemState",
          "name": "newState",
          "type": "uint8"
        }
      ],
      "name": "setItemStateByTokenId",
      "outputs": [],
      "stateMutability": "nonpayable",
      "type": "function"
    },
    {
      "inputs": [
        {
          "internalType": "uint256",
          "name": "tokenId",
          "type": "uint256"
        },
        {
          "internalType": "bool",
          "name": "soldState",
          "type": "bool"
        }
      ],
      "name": "setSoldByTokenId",
      "outputs": [],
      "stateMutability": "nonpayable",
      "type": "function"
    }
  ],
  "bytecode": "0x60c0604052600160a09081525034801561001857600080fd5b5060016000819055503373ffffffffffffffffffffffffffffffffffffffff1660808173ffffffffffffffffffffffffffffffffffffffff168152505060805160a05161196161008860003960008181610bca01526110b70152600081816105d10152610a4d01526119616000f3fe6080604052600436106100e85760003560e01c806373a2b9b51161008a578063aa41403e11610059578063aa41403e146102ad578063bc3d1f5d146102d6578063bfb231d2146102ff578063ca7dd37514610342576100e8565b806373a2b9b5146102075780637a909983146102305780637fd6f15c1461025957806399c8606114610284576100e8565b806365e17c9d116100c657806365e17c9d1461015d5780636bfb0d01146101885780636cd52e2a146101b35780637150d8ae146101dc576100e8565b806308551a53146100ed5780634c91c665146101185780635358fbda14610141575b600080fd5b3480156100f957600080fd5b5061010261037f565b60405161010f91906111af565b60405180910390f35b34801561012457600080fd5b5061013f600480360381019061013a919061122a565b6103a5565b005b61015b6004803603810190610156919061126a565b610467565b005b34801561016957600080fd5b506101726105cf565b60405161017f91906111af565b60405180910390f35b34801561019457600080fd5b5061019d6105f3565b6040516101aa91906112a6565b60405180910390f35b3480156101bf57600080fd5b506101da60048036038101906101d59190611311565b6105f9565b005b3480156101e857600080fd5b506101f16108a2565b6040516101fe91906111af565b60405180910390f35b34801561021357600080fd5b5061022e6004803603810190610229919061126a565b6108c8565b005b34801561023c57600080fd5b506102576004803603810190610252919061139c565b610b16565b005b34801561026557600080fd5b5061026e610bc8565b60405161027b91906112a6565b60405180910390f35b34801561029057600080fd5b506102ab60048036038101906102a6919061126a565b610bec565b005b3480156102b957600080fd5b506102d460048036038101906102cf919061126a565b610c87565b005b3480156102e257600080fd5b506102fd60048036038101906102f8919061126a565b610dd6565b005b34801561030b57600080fd5b506103266004803603810190610321919061126a565b611015565b60405161033997969594939291906114c1565b60405180910390f35b34801561034e57600080fd5b506103696004803603810190610364919061126a565b6110b1565b60405161037691906112a6565b60405180910390f35b600260009054906101000a900473ffffffffffffffffffffffffffffffffffffffff1681565b60005b60015481101561042757826005600083815260200190815260200160002060010154141561041457816005600083815260200190815260200160002060040160156101000a81548160ff021916908360068111156104095761040861144a565b5b021790555050610463565b808061041f9061155f565b9150506103a8565b506040517f08c379a000000000000000000000000000000000000000000000000000000000815260040161045a9061162b565b60405180910390fd5b5050565b33600360006101000a81548173ffffffffffffffffffffffffffffffffffffffff021916908373ffffffffffffffffffffffffffffffffffffffff160217905550600060056000838152602001908152602001600020905060006104ca836110b1565b90508034101561050f576040517f08c379a0000000000000000000000000000000000000000000000000000000008152600401610506906116bd565b60405180910390fd5b60018260040160146101000a81548160ff02191690831515021790555060038260040160156101000a81548160ff021916908360068111156105545761055361144a565b5b0217905550600360009054906101000a900473ffffffffffffffffffffffffffffffffffffffff1673ffffffffffffffffffffffffffffffffffffffff16837fa574c741071bb18f51fa88c17aeefec514bebf670ca22a3736fba6504ecbb763836040516105c291906112a6565b60405180910390a3505050565b7f000000000000000000000000000000000000000000000000000000000000000081565b60015481565b610601611114565b600160008154809291906106149061155f565b919050555082600460006101000a81548173ffffffffffffffffffffffffffffffffffffffff021916908373ffffffffffffffffffffffffffffffffffffffff16021790555033600260006101000a81548173ffffffffffffffffffffffffffffffffffffffff021916908373ffffffffffffffffffffffffffffffffffffffff1602179055508273ffffffffffffffffffffffffffffffffffffffff166323b872dd3330856040518463ffffffff1660e01b81526004016106d8939291906116ec565b600060405180830381600087803b1580156106f257600080fd5b505af1158015610706573d6000803e3d6000fd5b505050506040518060e0016040528060015481526020018381526020018473ffffffffffffffffffffffffffffffffffffffff1681526020018281526020013373ffffffffffffffffffffffffffffffffffffffff1681526020016000151581526020016001600681111561077e5761077d61144a565b5b815250600560006001548152602001908152602001600020600082015181600001556020820151816001015560408201518160020160006101000a81548173ffffffffffffffffffffffffffffffffffffffff021916908373ffffffffffffffffffffffffffffffffffffffff1602179055506060820151816003015560808201518160040160006101000a81548173ffffffffffffffffffffffffffffffffffffffff021916908373ffffffffffffffffffffffffffffffffffffffff16021790555060a08201518160040160146101000a81548160ff02191690831515021790555060c08201518160040160156101000a81548160ff0219169083600681111561088d5761088c61144a565b5b021790555090505061089d611164565b505050565b600360009054906101000a900473ffffffffffffffffffffffffffffffffffffffff1681565b600360009054906101000a900473ffffffffffffffffffffffffffffffffffffffff1673ffffffffffffffffffffffffffffffffffffffff163373ffffffffffffffffffffffffffffffffffffffff161461092257600080fd5b600061092d826110b1565b9050600460009054906101000a900473ffffffffffffffffffffffffffffffffffffffff1673ffffffffffffffffffffffffffffffffffffffff166342842e0e30600360009054906101000a900473ffffffffffffffffffffffffffffffffffffffff16856040518463ffffffff1660e01b81526004016109b093929190611744565b600060405180830381600087803b1580156109ca57600080fd5b505af11580156109de573d6000803e3d6000fd5b50505050600260009054906101000a900473ffffffffffffffffffffffffffffffffffffffff1673ffffffffffffffffffffffffffffffffffffffff166108fc479081150290604051600060405180830381858888f19350505050158015610a4a573d6000803e3d6000fd5b507f000000000000000000000000000000000000000000000000000000000000000073ffffffffffffffffffffffffffffffffffffffff166108fc600560008581526020019081526020016000206003015483610aa7919061177b565b9081150290604051600060405180830381858888f19350505050158015610ad2573d6000803e3d6000fd5b5060066005600084815260200190815260200160002060040160156101000a81548160ff02191690836006811115610b0d57610b0c61144a565b5b02179055505050565b60005b600154811015610b88578260056000838152602001908152602001600020600101541415610b7557816005600083815260200190815260200160002060040160146101000a81548160ff02191690831515021790555050610bc4565b8080610b809061155f565b915050610b19565b506040517f08c379a0000000000000000000000000000000000000000000000000000000008152600401610bbb9061162b565b60405180910390fd5b5050565b7f000000000000000000000000000000000000000000000000000000000000000081565b600260009054906101000a900473ffffffffffffffffffffffffffffffffffffffff1673ffffffffffffffffffffffffffffffffffffffff163373ffffffffffffffffffffffffffffffffffffffff1614610c4657600080fd5b600580600083815260200190815260200160002060040160156101000a81548160ff02191690836006811115610c7f57610c7e61144a565b5b021790555050565b600260009054906101000a900473ffffffffffffffffffffffffffffffffffffffff1673ffffffffffffffffffffffffffffffffffffffff163373ffffffffffffffffffffffffffffffffffffffff1614610ce157600080fd5b600460009054906101000a900473ffffffffffffffffffffffffffffffffffffffff1673ffffffffffffffffffffffffffffffffffffffff166342842e0e30600260009054906101000a900473ffffffffffffffffffffffffffffffffffffffff16846040518463ffffffff1660e01b8152600401610d6293929190611744565b600060405180830381600087803b158015610d7c57600080fd5b505af1158015610d90573d6000803e3d6000fd5b5050505060026005600083815260200190815260200160002060040160156101000a81548160ff02191690836006811115610dce57610dcd61144a565b5b021790555050565b600360009054906101000a900473ffffffffffffffffffffffffffffffffffffffff1673ffffffffffffffffffffffffffffffffffffffff163373ffffffffffffffffffffffffffffffffffffffff161480610e7f5750600260009054906101000a900473ffffffffffffffffffffffffffffffffffffffff1673ffffffffffffffffffffffffffffffffffffffff163373ffffffffffffffffffffffffffffffffffffffff16145b610e8857600080fd5b60046005600083815260200190815260200160002060040160156101000a81548160ff02191690836006811115610ec257610ec161144a565b5b021790555060006005600083815260200190815260200160002060040160146101000a81548160ff021916908315150217905550600460009054906101000a900473ffffffffffffffffffffffffffffffffffffffff1673ffffffffffffffffffffffffffffffffffffffff166342842e0e30600260009054906101000a900473ffffffffffffffffffffffffffffffffffffffff16846040518463ffffffff1660e01b8152600401610f7793929190611744565b600060405180830381600087803b158015610f9157600080fd5b505af1158015610fa5573d6000803e3d6000fd5b50505050600360009054906101000a900473ffffffffffffffffffffffffffffffffffffffff1673ffffffffffffffffffffffffffffffffffffffff166108fc479081150290604051600060405180830381858888f19350505050158015611011573d6000803e3d6000fd5b5050565b60056020528060005260406000206000915090508060000154908060010154908060020160009054906101000a900473ffffffffffffffffffffffffffffffffffffffff16908060030154908060040160009054906101000a900473ffffffffffffffffffffffffffffffffffffffff16908060040160149054906101000a900460ff16908060040160159054906101000a900460ff16905087565b600060647f000000000000000000000000000000000000000000000000000000000000000060646110e291906117af565b60056000858152602001908152602001600020600301546111039190611805565b61110d919061188e565b9050919050565b6002600054141561115a576040517f08c379a00000000000000000000000000000000000000000000000000000000081526004016111519061190b565b60405180910390fd5b6002600081905550565b6001600081905550565b600073ffffffffffffffffffffffffffffffffffffffff82169050919050565b60006111998261116e565b9050919050565b6111a98161118e565b82525050565b60006020820190506111c460008301846111a0565b92915050565b600080fd5b6000819050919050565b6111e2816111cf565b81146111ed57600080fd5b50565b6000813590506111ff816111d9565b92915050565b6007811061121257600080fd5b50565b60008135905061122481611205565b92915050565b60008060408385031215611241576112406111ca565b5b600061124f858286016111f0565b925050602061126085828601611215565b9150509250929050565b6000602082840312156112805761127f6111ca565b5b600061128e848285016111f0565b91505092915050565b6112a0816111cf565b82525050565b60006020820190506112bb6000830184611297565b92915050565b60006112cc8261116e565b9050919050565b60006112de826112c1565b9050919050565b6112ee816112d3565b81146112f957600080fd5b50565b60008135905061130b816112e5565b92915050565b60008060006060848603121561132a576113296111ca565b5b6000611338868287016112fc565b9350506020611349868287016111f0565b925050604061135a868287016111f0565b9150509250925092565b60008115159050919050565b61137981611364565b811461138457600080fd5b50565b60008135905061139681611370565b92915050565b600080604083850312156113b3576113b26111ca565b5b60006113c1858286016111f0565b92505060206113d285828601611387565b9150509250929050565b6000819050919050565b60006114016113fc6113f78461116e565b6113dc565b61116e565b9050919050565b6000611413826113e6565b9050919050565b600061142582611408565b9050919050565b6114358161141a565b82525050565b61144481611364565b82525050565b7f4e487b7100000000000000000000000000000000000000000000000000000000600052602160045260246000fd5b6007811061148a5761148961144a565b5b50565b600081905061149b82611479565b919050565b60006114ab8261148d565b9050919050565b6114bb816114a0565b82525050565b600060e0820190506114d6600083018a611297565b6114e36020830189611297565b6114f0604083018861142c565b6114fd6060830187611297565b61150a60808301866111a0565b61151760a083018561143b565b61152460c08301846114b2565b98975050505050505050565b7f4e487b7100000000000000000000000000000000000000000000000000000000600052601160045260246000fd5b600061156a826111cf565b91507fffffffffffffffffffffffffffffffffffffffffffffffffffffffffffffffff82141561159d5761159c611530565b5b600182019050919050565b600082825260208201905092915050565b7f4974656d206e6f7420666f756e6420666f722074686520676976656e20746f6b60008201527f656e496400000000000000000000000000000000000000000000000000000000602082015250565b60006116156024836115a8565b9150611620826115b9565b604082019050919050565b6000602082019050818103600083015261164481611608565b9050919050565b7f6e6f7420656e6f75676820657468657220746f20636f766572206974656d207060008201527f7269636520616e64206d61726b65742066656500000000000000000000000000602082015250565b60006116a76033836115a8565b91506116b28261164b565b604082019050919050565b600060208201905081810360008301526116d68161169a565b9050919050565b6116e6816112c1565b82525050565b600060608201905061170160008301866116dd565b61170e60208301856116dd565b61171b6040830184611297565b949350505050565b600061172e82611408565b9050919050565b61173e81611723565b82525050565b600060608201905061175960008301866116dd565b6117666020830185611735565b6117736040830184611297565b949350505050565b6000611786826111cf565b9150611791836111cf565b9250828210156117a4576117a3611530565b5b828203905092915050565b60006117ba826111cf565b91506117c5836111cf565b9250827fffffffffffffffffffffffffffffffffffffffffffffffffffffffffffffffff038211156117fa576117f9611530565b5b828201905092915050565b6000611810826111cf565b915061181b836111cf565b9250817fffffffffffffffffffffffffffffffffffffffffffffffffffffffffffffffff048311821515161561185457611853611530565b5b828202905092915050565b7f4e487b7100000000000000000000000000000000000000000000000000000000600052601260045260246000fd5b6000611899826111cf565b91506118a4836111cf565b9250826118b4576118b361185f565b5b828204905092915050565b7f5265656e7472616e637947756172643a207265656e7472616e742063616c6c00600082015250565b60006118f5601f836115a8565b9150611900826118bf565b602082019050919050565b60006020820190508181036000830152611924816118e8565b905091905056fea26469706673582212204effeb9c3d96e8541f921c31e79032c55aafc87893e96eda34f86d26680e95cb64736f6c63430008090033",
  "linkReferences": {},
  "deployedLinkReferences": {}
}