{
  "_format": "hh-sol-artifact-1",
  "contractName": "remakePhygitalEscrow3",
  "sourceName": "contracts/remakePhygitalEscrow3.sol",
  "abi": [
    {
      "inputs": [],
      "stateMutability": "nonpayable",
      "type": "constructor"
    },
    {
      "anonymous": false,
      "inputs": [
        {
          "indexed": true,
          "internalType": "uint256",
          "name": "itemId",
          "type": "uint256"
        },
        {
          "indexed": true,
          "internalType": "address",
          "name": "buyer",
          "type": "address"
        },
        {
          "indexed": false,
          "internalType": "uint256",
          "name": "totalPrice",
          "type": "uint256"
        }
      ],
      "name": "ItemSold",
      "type": "event"
    },
    {
      "inputs": [
        {
          "internalType": "contract IERC721",
          "name": "_nft",
          "type": "address"
        },
        {
          "internalType": "uint256",
          "name": "_tokenId",
          "type": "uint256"
        },
        {
          "internalType": "uint256",
          "name": "_price",
          "type": "uint256"
        }
      ],
      "name": "ListNFT",
      "outputs": [],
      "stateMutability": "nonpayable",
      "type": "function"
    },
    {
      "inputs": [],
      "name": "buyer",
      "outputs": [
        {
          "internalType": "address payable",
          "name": "",
          "type": "address"
        }
      ],
      "stateMutability": "view",
      "type": "function"
    },
    {
      "inputs": [
        {
          "internalType": "uint256",
          "name": "_tokenId",
          "type": "uint256"
        }
      ],
      "name": "cancelBeforeDelivery",
      "outputs": [],
      "stateMutability": "nonpayable",
      "type": "function"
    },
    {
      "inputs": [
        {
          "internalType": "uint256",
          "name": "_tokenId",
          "type": "uint256"
        }
      ],
      "name": "confirmDeliveryFinalizeSale",
      "outputs": [],
      "stateMutability": "nonpayable",
      "type": "function"
    },
    {
      "inputs": [
        {
          "internalType": "uint256",
          "name": "_tokenId",
          "type": "uint256"
        }
      ],
      "name": "depositETH",
      "outputs": [],
      "stateMutability": "payable",
      "type": "function"
    },
    {
      "inputs": [],
      "name": "feeAccount",
      "outputs": [
        {
          "internalType": "address payable",
          "name": "",
          "type": "address"
        }
      ],
      "stateMutability": "view",
      "type": "function"
    },
    {
      "inputs": [],
      "name": "feePercent",
      "outputs": [
        {
          "internalType": "uint256",
          "name": "",
          "type": "uint256"
        }
      ],
      "stateMutability": "view",
      "type": "function"
    },
    {
      "inputs": [
        {
          "internalType": "uint256",
          "name": "_tokenId",
          "type": "uint256"
        }
      ],
      "name": "getTotalPrice",
      "outputs": [
        {
          "internalType": "uint256",
          "name": "",
          "type": "uint256"
        }
      ],
      "stateMutability": "view",
      "type": "function"
    },
    {
      "inputs": [
        {
          "internalType": "uint256",
          "name": "_tokenId",
          "type": "uint256"
        }
      ],
      "name": "initiateDelivery",
      "outputs": [],
      "stateMutability": "nonpayable",
      "type": "function"
    },
    {
      "inputs": [],
      "name": "itemCount",
      "outputs": [
        {
          "internalType": "uint256",
          "name": "",
          "type": "uint256"
        }
      ],
      "stateMutability": "view",
      "type": "function"
    },
    {
      "inputs": [
        {
          "internalType": "uint256",
          "name": "",
          "type": "uint256"
        }
      ],
      "name": "items",
      "outputs": [
        {
          "internalType": "uint256",
          "name": "itemId",
          "type": "uint256"
        },
        {
          "internalType": "uint256",
          "name": "tokenId",
          "type": "uint256"
        },
        {
          "internalType": "contract IERC721",
          "name": "nft",
          "type": "address"
        },
        {
          "internalType": "uint256",
          "name": "price",
          "type": "uint256"
        },
        {
          "internalType": "address payable",
          "name": "seller",
          "type": "address"
        },
        {
          "internalType": "bool",
          "name": "sold",
          "type": "bool"
        },
        {
          "internalType": "enum remakePhygitalEscrow3.ItemState",
          "name": "state",
          "type": "uint8"
        }
      ],
      "stateMutability": "view",
      "type": "function"
    },
    {
      "inputs": [
        {
          "internalType": "uint256",
          "name": "_tokenId",
          "type": "uint256"
        }
      ],
      "name": "reverseNftTransfer",
      "outputs": [],
      "stateMutability": "nonpayable",
      "type": "function"
    },
    {
      "inputs": [],
      "name": "seller",
      "outputs": [
        {
          "internalType": "address payable",
          "name": "",
          "type": "address"
        }
      ],
      "stateMutability": "view",
      "type": "function"
    },
    {
      "inputs": [
        {
          "internalType": "uint256",
          "name": "tokenId",
          "type": "uint256"
        },
        {
          "internalType": "enum remakePhygitalEscrow3.ItemState",
          "name": "newState",
          "type": "uint8"
        }
      ],
      "name": "setItemStateByTokenId",
      "outputs": [],
      "stateMutability": "nonpayable",
      "type": "function"
    },
    {
      "inputs": [
        {
          "internalType": "uint256",
          "name": "tokenId",
          "type": "uint256"
        },
        {
          "internalType": "bool",
          "name": "soldState",
          "type": "bool"
        }
      ],
      "name": "setSoldByTokenId",
      "outputs": [],
      "stateMutability": "nonpayable",
      "type": "function"
    }
  ],
  "bytecode": "0x60c0604052600160a09081525034801561001857600080fd5b5060016000819055503373ffffffffffffffffffffffffffffffffffffffff1660808173ffffffffffffffffffffffffffffffffffffffff168152505060805160a0516117a661008860003960008181610ad90152610efc015260008181610514015261099001526117a66000f3fe6080604052600436106100e85760003560e01c806373a2b9b51161008a578063aa41403e11610059578063aa41403e146102ad578063bc3d1f5d146102d6578063bfb231d2146102ff578063ca7dd37514610342576100e8565b806373a2b9b5146102075780637a909983146102305780637fd6f15c1461025957806399c8606114610284576100e8565b806365e17c9d116100c657806365e17c9d1461015d5780636bfb0d01146101885780636cd52e2a146101b35780637150d8ae146101dc576100e8565b806308551a53146100ed5780634c91c665146101185780635358fbda14610141575b600080fd5b3480156100f957600080fd5b5061010261037f565b60405161010f9190610ff4565b60405180910390f35b34801561012457600080fd5b5061013f600480360381019061013a919061106f565b6103a5565b005b61015b600480360381019061015691906110af565b610467565b005b34801561016957600080fd5b50610172610512565b60405161017f9190610ff4565b60405180910390f35b34801561019457600080fd5b5061019d610536565b6040516101aa91906110eb565b60405180910390f35b3480156101bf57600080fd5b506101da60048036038101906101d59190611156565b61053c565b005b3480156101e857600080fd5b506101f16107e5565b6040516101fe9190610ff4565b60405180910390f35b34801561021357600080fd5b5061022e600480360381019061022991906110af565b61080b565b005b34801561023c57600080fd5b50610257600480360381019061025291906111e1565b610a25565b005b34801561026557600080fd5b5061026e610ad7565b60405161027b91906110eb565b60405180910390f35b34801561029057600080fd5b506102ab60048036038101906102a691906110af565b610afb565b005b3480156102b957600080fd5b506102d460048036038101906102cf91906110af565b610b63565b005b3480156102e257600080fd5b506102fd60048036038101906102f891906110af565b610c7e565b005b34801561030b57600080fd5b50610326600480360381019061032191906110af565b610e5a565b6040516103399796959493929190611306565b60405180910390f35b34801561034e57600080fd5b50610369600480360381019061036491906110af565b610ef6565b60405161037691906110eb565b60405180910390f35b600260009054906101000a900473ffffffffffffffffffffffffffffffffffffffff1681565b60005b60015481101561042757826005600083815260200190815260200160002060010154141561041457816005600083815260200190815260200160002060040160156101000a81548160ff021916908360068111156104095761040861128f565b5b021790555050610463565b808061041f906113a4565b9150506103a8565b506040517f08c379a000000000000000000000000000000000000000000000000000000000815260040161045a90611470565b60405180910390fd5b5050565b33600360006101000a81548173ffffffffffffffffffffffffffffffffffffffff021916908373ffffffffffffffffffffffffffffffffffffffff16021790555060006104b382610ef6565b9050803410156104f8576040517f08c379a00000000000000000000000000000000000000000000000000000000081526004016104ef90611502565b60405180910390fd5b610503826001610a25565b61050e8260036103a5565b5050565b7f000000000000000000000000000000000000000000000000000000000000000081565b60015481565b610544610f59565b60016000815480929190610557906113a4565b919050555082600460006101000a81548173ffffffffffffffffffffffffffffffffffffffff021916908373ffffffffffffffffffffffffffffffffffffffff16021790555033600260006101000a81548173ffffffffffffffffffffffffffffffffffffffff021916908373ffffffffffffffffffffffffffffffffffffffff1602179055508273ffffffffffffffffffffffffffffffffffffffff166323b872dd3330856040518463ffffffff1660e01b815260040161061b93929190611531565b600060405180830381600087803b15801561063557600080fd5b505af1158015610649573d6000803e3d6000fd5b505050506040518060e0016040528060015481526020018381526020018473ffffffffffffffffffffffffffffffffffffffff1681526020018281526020013373ffffffffffffffffffffffffffffffffffffffff168152602001600015158152602001600160068111156106c1576106c061128f565b5b815250600560006001548152602001908152602001600020600082015181600001556020820151816001015560408201518160020160006101000a81548173ffffffffffffffffffffffffffffffffffffffff021916908373ffffffffffffffffffffffffffffffffffffffff1602179055506060820151816003015560808201518160040160006101000a81548173ffffffffffffffffffffffffffffffffffffffff021916908373ffffffffffffffffffffffffffffffffffffffff16021790555060a08201518160040160146101000a81548160ff02191690831515021790555060c08201518160040160156101000a81548160ff021916908360068111156107d0576107cf61128f565b5b02179055509050506107e0610fa9565b505050565b600360009054906101000a900473ffffffffffffffffffffffffffffffffffffffff1681565b600360009054906101000a900473ffffffffffffffffffffffffffffffffffffffff1673ffffffffffffffffffffffffffffffffffffffff163373ffffffffffffffffffffffffffffffffffffffff161461086557600080fd5b600061087082610ef6565b9050600460009054906101000a900473ffffffffffffffffffffffffffffffffffffffff1673ffffffffffffffffffffffffffffffffffffffff166342842e0e30600360009054906101000a900473ffffffffffffffffffffffffffffffffffffffff16856040518463ffffffff1660e01b81526004016108f393929190611589565b600060405180830381600087803b15801561090d57600080fd5b505af1158015610921573d6000803e3d6000fd5b50505050600260009054906101000a900473ffffffffffffffffffffffffffffffffffffffff1673ffffffffffffffffffffffffffffffffffffffff166108fc479081150290604051600060405180830381858888f1935050505015801561098d573d6000803e3d6000fd5b507f000000000000000000000000000000000000000000000000000000000000000073ffffffffffffffffffffffffffffffffffffffff166108fc6005600085815260200190815260200160002060030154836109ea91906115c0565b9081150290604051600060405180830381858888f19350505050158015610a15573d6000803e3d6000fd5b50610a218260066103a5565b5050565b60005b600154811015610a97578260056000838152602001908152602001600020600101541415610a8457816005600083815260200190815260200160002060040160146101000a81548160ff02191690831515021790555050610ad3565b8080610a8f906113a4565b915050610a28565b506040517f08c379a0000000000000000000000000000000000000000000000000000000008152600401610aca90611470565b60405180910390fd5b5050565b7f000000000000000000000000000000000000000000000000000000000000000081565b600260009054906101000a900473ffffffffffffffffffffffffffffffffffffffff1673ffffffffffffffffffffffffffffffffffffffff163373ffffffffffffffffffffffffffffffffffffffff1614610b5557600080fd5b610b608160056103a5565b50565b600260009054906101000a900473ffffffffffffffffffffffffffffffffffffffff1673ffffffffffffffffffffffffffffffffffffffff163373ffffffffffffffffffffffffffffffffffffffff1614610bbd57600080fd5b600460009054906101000a900473ffffffffffffffffffffffffffffffffffffffff1673ffffffffffffffffffffffffffffffffffffffff166342842e0e30600260009054906101000a900473ffffffffffffffffffffffffffffffffffffffff16846040518463ffffffff1660e01b8152600401610c3e93929190611589565b600060405180830381600087803b158015610c5857600080fd5b505af1158015610c6c573d6000803e3d6000fd5b50505050610c7b8160026103a5565b50565b600360009054906101000a900473ffffffffffffffffffffffffffffffffffffffff1673ffffffffffffffffffffffffffffffffffffffff163373ffffffffffffffffffffffffffffffffffffffff161480610d275750600260009054906101000a900473ffffffffffffffffffffffffffffffffffffffff1673ffffffffffffffffffffffffffffffffffffffff163373ffffffffffffffffffffffffffffffffffffffff16145b610d3057600080fd5b600460009054906101000a900473ffffffffffffffffffffffffffffffffffffffff1673ffffffffffffffffffffffffffffffffffffffff166342842e0e30600260009054906101000a900473ffffffffffffffffffffffffffffffffffffffff16846040518463ffffffff1660e01b8152600401610db193929190611589565b600060405180830381600087803b158015610dcb57600080fd5b505af1158015610ddf573d6000803e3d6000fd5b50505050600360009054906101000a900473ffffffffffffffffffffffffffffffffffffffff1673ffffffffffffffffffffffffffffffffffffffff166108fc479081150290604051600060405180830381858888f19350505050158015610e4b573d6000803e3d6000fd5b50610e578160046103a5565b50565b60056020528060005260406000206000915090508060000154908060010154908060020160009054906101000a900473ffffffffffffffffffffffffffffffffffffffff16908060030154908060040160009054906101000a900473ffffffffffffffffffffffffffffffffffffffff16908060040160149054906101000a900460ff16908060040160159054906101000a900460ff16905087565b600060647f00000000000000000000000000000000000000000000000000000000000000006064610f2791906115f4565b6005600085815260200190815260200160002060030154610f48919061164a565b610f5291906116d3565b9050919050565b60026000541415610f9f576040517f08c379a0000000000000000000000000000000000000000000000000000000008152600401610f9690611750565b60405180910390fd5b6002600081905550565b6001600081905550565b600073ffffffffffffffffffffffffffffffffffffffff82169050919050565b6000610fde82610fb3565b9050919050565b610fee81610fd3565b82525050565b60006020820190506110096000830184610fe5565b92915050565b600080fd5b6000819050919050565b61102781611014565b811461103257600080fd5b50565b6000813590506110448161101e565b92915050565b6007811061105757600080fd5b50565b6000813590506110698161104a565b92915050565b600080604083850312156110865761108561100f565b5b600061109485828601611035565b92505060206110a58582860161105a565b9150509250929050565b6000602082840312156110c5576110c461100f565b5b60006110d384828501611035565b91505092915050565b6110e581611014565b82525050565b600060208201905061110060008301846110dc565b92915050565b600061111182610fb3565b9050919050565b600061112382611106565b9050919050565b61113381611118565b811461113e57600080fd5b50565b6000813590506111508161112a565b92915050565b60008060006060848603121561116f5761116e61100f565b5b600061117d86828701611141565b935050602061118e86828701611035565b925050604061119f86828701611035565b9150509250925092565b60008115159050919050565b6111be816111a9565b81146111c957600080fd5b50565b6000813590506111db816111b5565b92915050565b600080604083850312156111f8576111f761100f565b5b600061120685828601611035565b9250506020611217858286016111cc565b9150509250929050565b6000819050919050565b600061124661124161123c84610fb3565b611221565b610fb3565b9050919050565b60006112588261122b565b9050919050565b600061126a8261124d565b9050919050565b61127a8161125f565b82525050565b611289816111a9565b82525050565b7f4e487b7100000000000000000000000000000000000000000000000000000000600052602160045260246000fd5b600781106112cf576112ce61128f565b5b50565b60008190506112e0826112be565b919050565b60006112f0826112d2565b9050919050565b611300816112e5565b82525050565b600060e08201905061131b600083018a6110dc565b61132860208301896110dc565b6113356040830188611271565b61134260608301876110dc565b61134f6080830186610fe5565b61135c60a0830185611280565b61136960c08301846112f7565b98975050505050505050565b7f4e487b7100000000000000000000000000000000000000000000000000000000600052601160045260246000fd5b60006113af82611014565b91507fffffffffffffffffffffffffffffffffffffffffffffffffffffffffffffffff8214156113e2576113e1611375565b5b600182019050919050565b600082825260208201905092915050565b7f4974656d206e6f7420666f756e6420666f722074686520676976656e20746f6b60008201527f656e496400000000000000000000000000000000000000000000000000000000602082015250565b600061145a6024836113ed565b9150611465826113fe565b604082019050919050565b600060208201905081810360008301526114898161144d565b9050919050565b7f6e6f7420656e6f75676820657468657220746f20636f766572206974656d207060008201527f7269636520616e64206d61726b65742066656500000000000000000000000000602082015250565b60006114ec6033836113ed565b91506114f782611490565b604082019050919050565b6000602082019050818103600083015261151b816114df565b9050919050565b61152b81611106565b82525050565b60006060820190506115466000830186611522565b6115536020830185611522565b61156060408301846110dc565b949350505050565b60006115738261124d565b9050919050565b61158381611568565b82525050565b600060608201905061159e6000830186611522565b6115ab602083018561157a565b6115b860408301846110dc565b949350505050565b60006115cb82611014565b91506115d683611014565b9250828210156115e9576115e8611375565b5b828203905092915050565b60006115ff82611014565b915061160a83611014565b9250827fffffffffffffffffffffffffffffffffffffffffffffffffffffffffffffffff0382111561163f5761163e611375565b5b828201905092915050565b600061165582611014565b915061166083611014565b9250817fffffffffffffffffffffffffffffffffffffffffffffffffffffffffffffffff048311821515161561169957611698611375565b5b828202905092915050565b7f4e487b7100000000000000000000000000000000000000000000000000000000600052601260045260246000fd5b60006116de82611014565b91506116e983611014565b9250826116f9576116f86116a4565b5b828204905092915050565b7f5265656e7472616e637947756172643a207265656e7472616e742063616c6c00600082015250565b600061173a601f836113ed565b915061174582611704565b602082019050919050565b600060208201905081810360008301526117698161172d565b905091905056fea26469706673582212209ac9711f0cdbbe3aa0100b352fdb23b855a1caa5839d0fd75409afbbf2e6e46864736f6c63430008090033",
  "linkReferences": {},
  "deployedLinkReferences": {}
}